:020000040800F2
:10000000000003207D6500089D0D00089F0D00087D
:10001000A10D0008A30D0008A50D000800000000B8
:10002000000000000000000000000000A70D000814
:10003000A90D000800000000AB0D0008AD0D000880
:10004000CD650008CD650008CD650008CD650008C8
:10005000CD650008CD650008CD650008CD650008B8
:10006000CD650008CD650008CD650008CD650008A8
:10007000CD650008CD650008CD650008CD65000898
:10008000CD650008CD650008CD650008CD65000888
:10009000CD650008CD650008CD650008CD65000878
:1000A000CD650008CD650008CD650008CD65000868
:1000B000CD650008CD650008CD650008CD65000858
:1000C000CD650008CD650008CD650008CD65000848
:1000D000CD650008CD650008CD650008CD65000838
:1000E000CD650008CD650008CD650008CD65000828
:1000F000CD650008CD650008CD650008CD65000818
:10010000CD650008CD650008CD650008CD65000807
:10011000CD650008CD650008B10D0008CD6500086B
:10012000CD650008CD650008CD650008CD650008E7
:10013000CD650008CD650008CD650008CD650008D7
:10014000CD650008CD650008CD650008CD650008C7
:10015000CD650008CD650008CD650008CD650008B7
:10016000CD650008CD650008CD650008CD650008A7
:10017000CD650008C10D0008CD6500080000000035
:10018000CD650008CD650008CD650008CD65000887
:10019000CD650008CD650008CD650008CD65000877
:0C01A000D10D0008CD650008E10D00083D
:1001AC000348044B834202D0034B03B118477047FA
:1001BC009000002090000020000000000548064B35
:1001CC001B1AD90F01EBA301491002D0034B03B149
:1001DC00184770479000002090000020000000009D
:1001EC0010B5064C237843B9FFF7DAFF044B13B173
:1001FC000448AFF300800123237010BD9000002051
:10020C0000000000D065000808B5044B1BB1044980
:10021C000448AFF30080BDE80840CFE700000000C1
:10022C0094000020D065000870B50D4E0D4D761B66
:10023C00B61006D0002455F8043B01349847A6426A
:10024C00F9D1094E094D761B06F0BCF9B61006D053
:10025C00002455F8043B01349847A642F9D170BDEF
:10026C000C6600080C660008106600080C66000896
:10027C00024B0146186800F0BFB800BF0000002018
:10028C00024B0146186800F055B800BF0000002072
:10029C00830730B548D0541E002A3FD0CAB203465B
:1002AC0001E0013C3AD303F8012B9D07F9D1032C53
:1002BC002DD9CDB245EA05250F2C45EA054536D991
:1002CC00A4F1100222F00F0C03F1200EE6444FEAC9
:1002DC00121C03F1100242E9045542E90255103296
:1002EC007245F8D10CF1010214F00C0F03EB021261
:1002FC0004F00F0C13D0ACF1040323F0030304330C
:10030C00134442F8045B9342FBD10CF003042CB170
:10031C00CAB21C4403F8012B9C42FBD130BD64468D
:10032C001346002CF4D1F9E703461446BFE71A46EE
:10033C00A446E0E7002958D030B551F8043C83B00E
:10034C00002BA1F10404B8BFE418019000F0C0F830
:10035C00284A0198136833B1A3420DD9216804EBE4
:10036C00010C63452FD06360146003B0BDE83040CE
:10037C0000F0B0B8A34210D81A465B68002BF9D134
:10038C00116802EB010C644519D02FD363605460E3
:10039C0003B0BDE8304000F09DB8116802EB010CD1
:1003AC00A44516D022D8216804EB010C6345EDD18D
:1003BC001D685B682944C4E900135460D5E72368C1
:1003CC0019441160D1E71D685B682944C4E9001326
:1003DC00CAE7246821445418A3421160C5D1D3E95B
:1003EC0000432144C2E90013BFE770470C230360AC
:1003FC00BBE700BFAC000020F8B5CD1C25F0030511
:10040C0008350C2D38BF0C25002D064623DBA942E0
:10041C0021D8254F00F05CF83A6822B3144603E06B
:10042C0063682246FBB11C4623685B1BF8D40B2B7C
:10043C0015D8636894420CBF3B605360304600F0A3
:10044C0049F804F10B00231D20F00700C21A01D05B
:10045C001B1AA350F8BD0C2333600020F8BD236099
:10046C001C442560EAE77968C9B12946304600F09A
:10047C001DF8431C0CD0C41C24F00304A04205D06E
:10048C00211A304600F012F8013001D02560D5E772
:10049C000C233046336000F01DF80020F8BD3046C8
:1004AC0000F004F87860E0E7AC00002038B5074DA8
:1004BC000022044608462A6000F00EF8431C00D0C7
:1004CC0038BD2B68002BFBD0236038BDB400002056
:1004DC00704700BF704700BF044A05491368002BE2
:1004EC0008BF0B461844106018467047B80000202F
:1004FC00300B002053B94AB9002908BF00281CBF93
:10050C004FF0FF314FF0FF3000F06AB9ADF1080C3D
:10051C006DE904CE00F006F8DDF804E0DDE9022315
:10052C0004B070472DE9F047089D0C46002B4ED1C6
:10053C0094468C458646B2FA82F262D94AB1C2F12F
:10054C002003914020FA03F30CFA02FC194300FA41
:10055C0002FE4FEA1C471FFA8CF6B1FBF7F44FEA88
:10056C001E4307FB141143EA014304FB06F19942B5
:10057C000AD91CEB030304F1FF3080F0138199427C
:10058C0040F21081023C6344591A1FFA8EF3B1FBFE
:10059C00F7F007FB101143EA014300FB06F69E42FD
:1005AC000AD91CEB030300F1FF3180F0FD809E4261
:1005BC0040F2FA80634402389B1B40EA044000215D
:1005CC001DB1D3400022C5E90032BDE8F0878B4253
:1005DC0005D90DB1C5E9000100210846F5E7B3FACC
:1005EC0083F1002946D1A34202D39042C0F0F1809E
:1005FC00861A64EB03030120002DE6D0C5E90063E5
:10060C00E3E7002A40F09180A1EB0C044FEA1C4870
:10061C001FFA8CF70121B4FBF8F64FEA1E4308FBD6
:10062C00164443EA044307FB06F0984208D91CEB36
:10063C00030306F1FF3402D2984200F2CE80264624
:10064C001C1A1FFA8EF3B4FBF8F008FB104443EAB3
:10065C00044300FB07F79F4208D91CEB030300F18E
:10066C00FF3402D29F4200F2B1802046DB1B40EAED
:10067C000640A5E7C1F120068B4022FA06F71F437E
:10068C0020FA06FC04FA01F343EA0C03F44000FAE6
:10069C0001F8380C4FEA1349B4FBF0FE1FFA87FC43
:1006AC0000FB1E4449EA04440EFB0CF9A14502FA76
:1006BC0001F20AD93C190EF1FF3A80F08580A14570
:1006CC0040F28280AEF1020E3C44A4EB09041FFA06
:1006DC0083F9B4FBF0F300FB134449EA044403FB35
:1006EC000CFCA44507D93C1903F1FF3068D2A44592
:1006FC0066D9023B3C4443EA0E40A0FB0293A4EBB8
:10070C000C049C42CE469C4652D34FD055B1B8EB0C
:10071C000E0364EB0C0404FA06F6CB40CC401E43EB
:10072C00C5E900640021BDE8F087C2F1200320FA7E
:10073C0003F10CFA02FC24FA03F394400C434FEA45
:10074C001C4800FA02FE1FFA8CF7B3FBF8F008FB0A
:10075C001031230C43EA014300FB07F1994208D9FD
:10076C001CEB030300F1FF362CD299422AD9023834
:10077C0063445B1AA4B2B3FBF8F108FB113344EAEF
:10078C00034401FB07F3A34208D91CEB040401F159
:10079C00FF3613D2A34211D902396444E41A41EA58
:1007AC00004138E70446EFE6084605E7C845ADD2F8
:1007BC00B9EB020E63EB070C0138A7E73146EDE706
:1007CC00034698E73046D4E7D6467EE763440238C2
:1007DC004CE70646234608460EE7023E63442FE7E5
:1007EC00704700BF2DE9F0478EB0002409940A949D
:1007FC000B940C940D9401945D4B1A6B42F0040213
:10080C001A631A6B02F004020192019A02941A6B99
:10081C0042F020021A631A6B02F020020292029A32
:10082C0003941A6B42F080021A631A6B02F0800276
:10083C000392039A04941A6B42F001021A631A6B26
:10084C0002F001020492049A05941A6B42F002021F
:10085C001A631A6B02F002020592059A06941A6B3F
:10086C0042F040021A631A6B02F040020692069A9A
:10087C0007941A6B42F010021A631A6B02F0100202
:10088C000792079A08941A6B42F008021A631B6BC2
:10089C0003F008030893089B364F2246162138466E
:1008AC0003F006FADFF8D88022468021404603F098
:1008BC00FFF9314E22464FF44051304603F0F8F91F
:1008CC00DFF8C09022464FF4C041484603F0F0F9DF
:1008DC001623099301250A950B940C9409A9384603
:1008EC0003F0E2F848F2070309934FF4901ACDF89D
:1008FC0028A00B9409A9404603F0D6F8802309934D
:10090C000A950B940C9409A9404603F0CDF82023CA
:10091C000993CDF828A00B9409A9384603F0C4F824
:10092C00042309930A940B9409A9144803F0BCF806
:10093C004FF4006309930A940B9409A9304603F011
:10094C00B3F84FF4405309930A950B940C9409A9EE
:10095C00304603F0A9F84FF4C04309930A950B9461
:10096C000C9409A9484603F09FF80EB0BDE8F08737
:10097C000038024000080240000C02400004024013
:10098C00000002400018024008B50268034B9A426E
:10099C0000D008BD03F014FAFBE700BF00100040C4
:1009AC0072B6FEE708B50448044B036003F02EFA58
:1009BC0000B908BDFFF7F4FF180300200030024017
:1009CC0008B50C480C4B0360002343608360C36084
:1009DC008362C3620363436303F027FA28B90121DE
:1009EC00044803F0EFFA10B908BDFFF7D9FFFFF781
:1009FC00D7FF00BFD802002000B0024000B589B07C
:100A0C000023019302930393049305930693079396
:100A1C001448154A02600122426083600421C160BF
:100A2C0010220261402242614FF4C0728261C361A4
:100A3C004FF40062026243624FF40053836202235C
:100A4C0001930722029203910492032205920693CA
:100A5C000793694403F0A8FB10B909B05DF804FBD7
:100A6C00FFF79EFFC0000020400100A008B5114810
:100A7C00114B0360114B436000238360C3604FF440
:100A8C008042026143618361C361036203F0ACFB8A
:100A9C0050B90021074803F085FC38B900210548FE
:100AAC0003F0A2FC20B908BDFFF77AFFFFF778FF2F
:100ABC00FFF776FF84020020005C0040A086010056
:100ACC0000B58FB03422002101A8FFF7E1FB2748C5
:100ADC00274B0360002343608360C36003610922DA
:100AEC004261012282611D22C2610322026240F234
:100AFC000D12426240F24312826240F21712C2623D
:100B0C0040F24712026380F8343080F8353080F8B8
:100B1C00363003F061FD20BB00220192F0210291DE
:100B2C0003924FF4A073049302200590FF200690CB
:100B3C0007924FF4C0600890072009904FF0504086
:100B4C000A900B910C938DF834208DF835208DF88C
:100B5C00362001A9054803F029FE20B90FB05DF835
:100B6C0004FBFFF71DFFFFF71BFF00BFDC0100209C
:100B7C000068014008B50D480D4B03604FF48273BB
:100B8C00436000238360C360036143614FF40072D0
:100B9C0082611822C2610362436283620A23C362C8
:100BAC0003F038FE00B908BDFFF7FAFE84010020FF
:100BBC000050014000B587B00023029303930493C7
:100BCC000593009301931348134A026043608360BA
:100BDC004FF6FF72C26003614361836104F00CF84D
:100BEC0090B94FF48053029302A90A4804F03DF8DF
:100BFC0060B90023009301936946064804F0B4F8E9
:100C0C0030B907B05DF804FBFFF7CAFEFFF7C8FE6A
:100C1C00FFF7C6FE3C0100200000014008B50A4861
:100C2C000A4B03604FF4E133436000238360C360DD
:100C3C0003610C2242618361C36104F0D6F900B9EF
:100C4C0008BDFFF7ADFE00BFF4000020001001400E
:100C5C0000B595B03022002108A8FFF719FB00233E
:100C6C00039304930593069307930193204A116C05
:100C7C0041F080511164126C02F080520192019A81
:100C8C0002931C4A136823F4404343F480431360DB
:100C9C00136803F440430293029B012308934FF41F
:100CAC008033099302230E934FF480020F92042297
:100CBC0010924822119212930323139308A802F066
:100CCC0053FA80B90F230393022104910023059357
:100CDC004FF480520692079303A802F0AFFC20B9A0
:100CEC0015B05DF804FBFFF75BFEFFF759FE00BF84
:100CFC00003802400070004038B503F047F8FFF7A9
:100D0C00A7FFFFF76FFDFFF74DFEFFF759FEFFF74B
:100D1C0075FEFFF7ABFEFFF7D3FEFFF72BFFFFF7D8
:100D2C0049FFFFF77BFF00F04FFB002413E0154D4C
:100D3C0000224FF4C041284602F0BAFFC82003F04D
:100D4C0051F801224FF4C041284602F0B1FFC820EF
:100D5C0003F048F801341D2CE9DD08E041F288333A
:100D6C0001220949094804F070F900F04DFB41F2E9
:100D7C00883301220449054804F0CDF90028EDD050
:100D8C00F3E700BF00180240BC000020F400002074
:100D9C00FEE7FEE7FEE7FEE7FEE7704770477047A9
:100DAC007047000008B5024803F00AFE08BD00BFFA
:100DBC002403002008B5024801F070FB08BD00BFF9
:100DCC004807002008B5024803F083FC08BD00BFAB
:100DDC00DC01002008B5024803F056F808BD00BF3E
:100DEC00D80200202DE9F04186B000230193029334
:100DFC000393049305932D4B1B6813B106B0BDE808
:100E0C00F0814FF00108294BC3F8008000260096B2
:100E1C00274B9A6B42EA08029A639B6B03EA08031E
:100E2C000093009B4FF63F03019302270297032583
:100E3C0004950C24059401A91E4802F035FECDF84A
:100E4C000480029703960495059401A91A4802F0B0
:100E5C002BFE48F2331301930297039604950594E5
:100E6C0001A9164802F020FE4FF6837301930297F6
:100E7C0003960495059401A9114802F015FE4CF255
:100E8C0003730193029703960495059401A90D48E9
:100E9C0002F00AFE602301930297039604950594D1
:100EAC0001A9094802F000FEA8E700BF20030020BA
:100EBC0000380240001402400008024000180240B2
:100ECC0000100240000C02400004024082B00021DD
:100EDC0000910B4B5A6C42F480425A645A6C02F4E7
:100EEC0080420092009A01911A6C42F080521A646E
:100EFC001B6C03F080530193019B02B0704700BF41
:100F0C00003802400268094B9A4200D0704782B008
:100F1C0000230193064B1A6B42F480521A631B6B2D
:100F2C0003F480530193019B02B0704700300240E0
:100F3C000038024002680E4B9A4200D0704700B550
:100F4C0083B000220192A3F5F043196B41F4000128
:100F5C0019631B6B03F400030193019B05215A20B9
:100F6C0002F000FF5A2002F00DFF03B05DF804FB05
:100F7C0000B002402DE9F04188B0002303930493A4
:100F8C000593069307930268204B9A4202D008B04F
:100F9C00BDE8F081002500951D4C236B43F0040344
:100FAC002363236B03F004030093009B0195236BD5
:100FBC0043F001032363236B03F001030193019BB3
:100FCC004FF4007303934FF01208CDF810800127F3
:100FDC0005970426079603A90E4802F065FD4FF409
:100FEC0080730393CDF8108005970695079603A997
:100FFC00094802F059FD0295236C43F40003236465
:10100C00236C03F400030293029BC0E7005C0040D6
:10101C000038024000080240000002402DE9F04177
:10102C0098B00446002113911491159116911791C3
:10103C00302207A8FFF72CF92268624B9A4202D0A3
:10104C0018B0BDE8F0810823079332230B930223D9
:10105C000D9307A802F0E6FB002840F0B0800024B6
:10106C000094594B5A6C42F080625A645A6C02F0EC
:10107C0080620092009A01941A6B42F020021A636B
:10108C001A6B02F020020192019A02941A6B42F040
:10109C0001021A631A6B02F001020292029A039483
:1010AC001A6B42F002021A631A6B02F002020392EC
:1010BC00039A04941A6B42F040021A631A6B02F002
:1010CC0040020492049A05941A6B42F004021A63CB
:1010DC001A6B02F004020592059A06941A6B42F000
:1010EC0008021A631B6B03F008030693069B4FF46C
:1010FC008063139302251495159416940E26179657
:10110C0013A9324802F0D0FC41F6580313931495FE
:10111C0015941694179613A92D4802F0C5FC0323B9
:10112C0013931495159416944FF00908CDF85C8020
:10113C00284F13A9384602F0B7FC4FF47063139391
:10114C00149515941694179613A9384602F0ACFC16
:10115C004FF40C631393149515941694179607F586
:10116C00A05713A9384602F09FFC4FF498631393D1
:10117C00149515941694179613A9174802F094FC1D
:10118C0048231393149515941694179613A9134882
:10119C0002F08AFC4FF4A0531393149515941694F3
:1011AC00CDF85C8013A9384602F07EFC224605215E
:1011BC00582002F0D7FD582002F0E4FD40E7FFF77D
:1011CC00EFFB4CE70068014000380240001402407D
:1011DC00000002400004024000080240000C0240E3
:1011EC0000B589B0002303930493059306930793EA
:1011FC000268144B9A4202D009B05DF804FB00213E
:10120C00019103F568435A6C42F480125A645A6C8B
:10121C0002F480120192019A02911A6B42F02002A0
:10122C001A631B6B03F020030293029B4FF4607351
:10123C000393022304930523079303A9024802F0A6
:10124C0033FCD9E700500140001402400268094BFE
:10125C009A4200D0704782B000230193064B5A6C1F
:10126C0042F001025A645B6C03F001030193019B91
:10127C0002B07047000001400038024000B589B050
:10128C00002303930493059306930793026803F1D9
:10129C00804303F588339A4202D009B05DF804FB11
:1012AC000021019103F594335A6C42F010025A64F8
:1012BC005A6C02F010020192019A02911A6B42F0E0
:1012CC0001021A631B6B03F001030293029B4FF4A0
:1012DC00C06303930223049303230693072307930A
:1012EC0003A9024802F0E0FBD7E700BF0000024070
:1012FC0008B5FFF777FD08BD30B589B0044600236B
:10130C000193214B1A6C42F010021A641B6C03F00F
:10131C0010030193019B02A903A802F065FA069B36
:10132C00CBB902F041FA0346184AA2FB03239B0CEB
:10133C00013B1748174A026040F2E732C260436033
:10134C00002303618360836103F056FC054630B1D2
:10135C00284609B030BD02F027FA4300E4E70C48F8
:10136C0003F0E6FA05460028F2D1362002F00AFD19
:10137C000F2C01D90125EBE700222146362002F083
:10138C00F1FC054B1C60E3E70038024083DE1B4395
:10139C0024030020001000406800002004290CD019
:1013AC00052902D0022904D07047064B03221A707B
:1013BC007047044B02221A707047024B01221A70BC
:1013CC00F2E700BF6C03002008B500220B490C4863
:1013DC0004F0A2F848B90B49094804F0BCF838B934
:1013EC00074804F0FDF830B908BDFFF7D9FAF2E769
:1013FC00FFF7D6FAF4E7FFF7D3FAF5E7A9130008DD
:10140C00700300207000002008B5024804F0F2F8C8
:10141C0008BD00BF7003002070B588B00023039393
:10142C00049305930693079302681D4B9A4201D0CF
:10143C0008B070BD002401941A4D2B6B43F00203CD
:10144C002B632B6B03F002030193019B4FF450436E
:10145C000393022304930C230793134E0DEB030108
:10146C00304602F021FB4FF400530393049405948F
:10147C0003A9304602F018FB02942B6B43F0005387
:10148C002B632B6B03F000530293029B22462146E5
:10149C004D2002F067FC4D2002F074FCC8E700BF41
:1014AC0000000440003802400004024008B5D0F8A7
:1014BC00DC0304F0E9F908BD08B5D0F8DC0304F04E
:1014CC00F4F908BD08B5D0F8DC0304F0F8F908BD50
:1014DC00704708B5D0F8DC0304F0DFF908BD08B597
:1014EC00D0F8DC0304F0DDF908BD000090F8CC3333
:1014FC000BB10020704710B504461148C0F8DC430E
:10150C00C4F8D0030F4B03600C2343710123C37148
:10151C0000238371022242728372C3728373037439
:10152C0000F019F940B9064801F09FF80146204631
:10153C0004F0A7F9002010BDFFF732FAF3E700BF63
:10154C00480700200000044008B5D0F8D00301F093
:10155C0091F8012804D0022804D000B1012008BD64
:10156C000120FCE70220FAE708B5D0F8D00301F01F
:10157C0076F808BD08B5D0F8D00301F069F808BDBD
:10158C0008B590F8CC3323B1C82002F02BFC002016
:10159C0008BD084600F06EF8F6E7D0F8D033C1EB82
:1015AC00011003EB8000C07D38B1C1EB011103EBDE
:1015BC00810383F83C2000207047C1EB011103EB41
:1015CC00810383F83D20F6E708B502F00BFC08BD5B
:1015DC00022805D8DFE800F005040200012070475E
:1015EC000220704708B5D0F8D00301F005F8FFF7DA
:1015FC00EFFF08BD08B5D0F8D00301F012F8FFF7E3
:10160C00E7FF08BD08B5D0F8D00301F01CF8FFF7D0
:10161C00DFFF08BD10B584B0D0F8D003BDF8204072
:10162C0002949DF81C4001949DF81840009401F020
:10163C0032F8FFF7CDFF04B010BD08B5D0F8D003D9
:10164C0000F077F8FFF7C4FF08BD10B584B0D0F8F0
:10165C00D0039DF824400394BDF820400294079CCD
:10166C0001949DF81840009400F0BCF8FFF7B0FF0F
:10167C0004B010BD08B528B901221021024802F0AF
:10168C0017FB08BD0022F8E700080240F8B5066811
:10169C00346A04F00F07C4F34343C4F30A14022B57
:1016AC0000D0F8BD0546002CFBD0C7EB071300EBB0
:1016BC008303D96A0029F4D0C7EB071300EB83032B
:1016CC009A6B22445B6B9A4207D9C7EB071700EB66
:1016DC008705042385F84C30E3E72246304601F0B9
:1016EC0018F9C7EB071305EB8303DA6A2244DA62B5
:1016FC009A6B22449A6306EB4716D6F81025C2F370
:10170C00C9421B8DA342CCD1002ACAD0D6F80035D1
:10171C0023F0804343F00043C6F80035C7EB0713B2
:10172C0005EB830393F83C2082F0010283F83C2004
:10173C00B7E790F8D433012B0BD010B50446012336
:10174C0080F8D433006801F0DAFA002084F8D4036E
:10175C0010BD02207047002842D030B583B004463B
:10176C00056890F8D533BBB1032384F8D533B5F1B4
:10177C00A04F16D0206801F067F8237C8DF800305C
:10178C00231D0ECB206801F010F868B1022384F8F9
:10179C00D533012003B030BD80F8D433FFF73CFEC5
:1017AC00E2E70023A371E5E70121206801F0E5F8E9
:1017BC0020B1022384F8D5330120EBE7237C8DF88C
:1017CC000030231D0ECB206801F008F918B9012355
:1017DC0084F8D533DEE7022384F8D5330120D9E72A
:1017EC000120704738B59DF81040BDF81850C1EB7A
:1017FC00011C00EB8C0C8CF817208CF8263094B95B
:10180C00C1EB011C00EB8C0C4FF0030E8CF82AE0A2
:10181C009DF81CE08CF819E0032B00F2B180DFE896
:10182C0003F00BA84C7AC1EB011C00EB8C0C4FF0B5
:10183C00020E8CF82AE0EFE7012C40F0A180F2B9FF
:10184C0035B9C1EB011300EB8303012283F83D2072
:10185C00C1EB011300EB830393F83D303BB9C1EBB3
:10186C00011300EB8303002283F82A2088E0C1EBEC
:10187C00011300EB8303022283F82A2080E0C1EBE2
:10188C00011300EB83039B7E012B79D1C1EB011378
:10189C0000EB830393F83C303BB9C1EB011300EB35
:1018AC008303002283F82A206AE0C1EB011300EBCA
:1018BC008303022283F82A2062E0AAB9C1EB011348
:1018CC0000EB830393F83D3033B9C1EB011300EB0C
:1018DC00830383F82A2053E0C1EB011300EB83034D
:1018EC00022283F82A204BE0C1EB011300EB8303A7
:1018FC0093F83C303BB9C1EB011300EB830300229E
:10190C0083F82A203CE0C1EB011300EB8303022295
:10191C0083F82A2034E0AAB9C1EB011300EB83034E
:10192C0093F83D3033B9C1EB011300EB830383F81B
:10193C002A2025E0C1EB011300EB8303022283F87C
:10194C002A201DE0C1EB011300EB830393F83C301C
:10195C003BB9C1EB011300EB8303002283F82A206F
:10196C000EE0C1EB011300EB8303022283F82A2063
:10197C0006E0C1EB011300EB8303002283F82A205D
:10198C00C1EB011300EB8303059ADA625D6300225D
:10199C0083F84C209A63597583F84D20C1EB0111E3
:1019AC0089001031014482790431006801F038FA61
:1019BC0038BD30B583B004460568D5F84034019382
:1019CC00D5F840340093009B23F02E030093019B29
:1019DC0013F0020F07D0019B13F0010F25D1009BD0
:1019EC0043F002030093019B13F0080F10D0009BEF
:1019FC0043F008030093019B13F0040F2DD0637A7E
:101A0C00022B15D0E379012B22D02046FFF761FD84
:101A1C00019B13F0200F03D0009B43F02003009395
:101A2C00009BC5F8403403B030BDFFF745FDD6E749
:101A3C00019B03F4C023B3F5802F04D0012120684F
:101A4C0001F04CF8E1E70221206801F047F8DCE7EF
:101A5C004EF66022C5F80424D7E72046FFF73FFD79
:101A6C00D6E70000F8B505460C460668304600F08F
:101A7C0077FF10F0040F21D006EB44130422C3F8B7
:101A8C000825C4EB041305EB8303072283F84D20D0
:101A9C002146286801F033F92146286800F060FFE0
:101AAC0010F4007F6CD02146286801F028F906EB71
:101ABC0044164FF40073C6F80835F8BD2146286863
:101ACC0000F04EFF10F4807F11D006EB44134FF45E
:101ADC008072C3F80825C4EB041305EB83030822BA
:101AEC0083F84D202146286801F009F9D4E72146F6
:101AFC00286800F035FF10F0080F10D006EB4413E7
:101B0C000822C3F80825C4EB041305EB8303062253
:101B1C0083F84D202146286801F0F1F8BCE72146F6
:101B2C00286800F01DFF10F4806F11D006EB4413F1
:101B3C004FF48062C3F80825C4EB041305EB830350
:101B4C00092283F84D202146286801F0D8F8A3E734
:101B5C002146286800F004FF10F0800F9CD006EBA3
:101B6C0044138022C3F80825C4EB041305EB83034C
:101B7C00072283F84D202146286801F0C0F88BE736
:101B8C002146286800F0ECFE10F0010F7DD006EB2A
:101B9C00441606F5A0672023BB60C4EB041305EBC9
:101BAC008303DB7E012B30D0AB794BB1C4EB041338
:101BBC0005EB83031A6B3969C1F31201521A9A634C
:101BCC00C4EB041305EB8303012283F84D200021A1
:101BDC005964BA6093F8263013B3022B20D0032B30
:101BEC0001D0012B22D1D6F8003543F00053C6F8B2
:101BFC000035C4EB041305EB8303012283F84C205E
:101C0C0021462846FFF764FC10E0C4EB041305EBF7
:101C1C0083030022DA767B6823F480337B60C3E78E
:101C2C002146286801F06BF81023BB60AB79012BBF
:101C3C000ED0C4EB041305EB830393F83C30C4EBD8
:101C4C00041405EB840483F0010384F83C3034E77E
:101C5C00C4EB041205EB8202936B128D1344013B0F
:101C6C00B3FBF2F313F0010F3FF427AFC4EB0413F3
:101C7C0005EB830393F83C30C4EB041405EB8404AC
:101C8C0083F0010384F83C3017E72146286800F004
:101C9C0067FE10F0200F1ED006EB44162023C6F86A
:101CAC000835C4EB041305EB83039B7E012B7FF4F7
:101CBC0004AFC4EB041305EB83030122DA76C4EB07
:101CCC00041305EB8303032283F84D202146286877
:101CDC0001F015F8F1E62146286800F041FE10F0FD
:101CEC00020F00F0238106EB441606F5A0620223D6
:101CFC009360C4EB041305EB830393F84D30012B75
:101D0C0016D0023B072B1DD801A151F823F000BFC0
:101D1C00C71A0008951E0008ED1E0008F51D0008E6
:101D2C00671D00087D1D00081D1F00087D1D000893
:101D3C00C4EB041305EB8303022283F84D2001222C
:101D4C0083F84C20C4EB041305EB830393F84C206D
:101D5C0021462846FFF7BCFBAFE6C4EB041305EBAA
:101D6C008303022283F84D20052283F84C20E9E7F7
:101D7C00C4EB041305EB8303022183F84D10596C5B
:101D8C000131596402291AD9C4EB041305EB8303FE
:101D9C00002159649B7E012B07D0C4EB041305EB87
:101DAC008303042283F84C20CCE73C2303FB04532D
:101DBC00D9761977536823F480335360EDE7C4EB7D
:101DCC00041305EB8303022283F84C2093F826308E
:101DDC000BB19342B6D1D6F8003523F0804343F0D3
:101DEC000043C6F80035ADE7C4EB041305EB8303E1
:101DFC00022183F84D10DB7E012BA3D1C4EB04131D
:101E0C0005EB830393F82630032B17D03C2303FBFD
:101E1C000453022283F84C20C4EB041305EB830318
:101E2C0093F826300BB1022B8CD1D6F8003523F069
:101E3C00804343F00043C6F8003583E73C2101FBA7
:101E4C0004518B6C01338B64022B16D90B46002189
:101E5C009964D9765B6C022B04D83C2303FB0453A6
:101E6C0001211977536823F4803353603C2303FB1F
:101E7C000453042283F84C20CEE73C2303FB045389
:101E8C00022283F84C20C7E7C4EB041305EB830351
:101E9C00022183F84D10DB7E012B7FF453AFC4EB92
:101EAC00041305EB830383F84C10516841F4803123
:101EBC005160D16841F04001D160D16821F020011E
:101ECC00D16093F8263013B1022B7FF43BAFD6F8D8
:101EDC00003523F0804343F00043C6F8003531E76A
:101EEC00C4EB041305EB8303022283F84D2083F823
:101EFC004C2093F8263013B193427FF423AFD6F8DD
:101F0C00003523F0804343F00043C6F8003519E751
:101F1C00C4EB041305EB8303022283F84D205A6CA7
:101F2C0001325A64042283F84C200BE721462868BE
:101F3C0000F016FD10F0400F18D006EB44134022B1
:101F4C00C3F80825C4EB041305EB8303052283F8BF
:101F5C004D209B7E2BB9C4EB041305EB83030022AD
:101F6C005A642146286800F0CAFEA6E52146286876
:101F7C0000F0F6FC10F0100F3FF49FADC4EB04130F
:101F8C0005EB830393F82630032B28D00BB1022BDF
:101F9C0018D1C4EB041305EB830300225A64AB790C
:101FAC0033B1C4EB041305EB8303DB7E012B09D1A6
:101FBC003C2303FB0453042283F84D20214628685C
:101FCC0000F09DFEC4EB041305EB8303DB7E012BB9
:101FDC0012D006EB44131022C3F808256DE53C2300
:101FEC0003FB045300225A64042283F84D2021463B
:101FFC00286800F084FEE5E7C4EB041305EB8305C9
:10200C000023EB7606EB4413D3F8042522F480323C
:10201C00C3F80425D3F80C2542F02002C3F80C2594
:10202C00D7E700BF70B505460C460668304600F091
:10203C0097FC10F0040F10D006EB44160423C6F8DE
:10204C000835C4EB041305EB8303072283F84D20FA
:10205C002146286800F053FE70BD2146286800F028
:10206C007FFC10F0200F4AD006EB44162023C6F854
:10207C000835C4EB041305EB83035B7E012B2DD0D9
:10208C00C4EB041305EB83039B7E012BE4D1C4EB5F
:10209C00041305EB8303DB7E002BDDD1C4EB0413AF
:1020AC0005EB830393F82630012B05D0C4EB041306
:1020BC0005EB83030122DA762601C4EB041305EB4E
:1020CC008303032283F84D202146286800F017FE75
:1020DC00361B05EB860600237364BDE7C4EB0413C3
:1020EC0005EB830300225A76022283F84C2003224C
:1020FC0083F84D202146286800F001FEC0E72146F8
:10210C00286800F02DFC10F4007F0AD006EB441672
:10211C004FF40073C6F808352146286800F0EFFD2F
:10212C009AE72146286800F01BFC10F0010F3BD009
:10213C00C4EB041305EB830300225A642146286880
:10214C0000F00EFC10F0400F0AD0C4EB041305EBAA
:10215C00830301225A7606EB44134022C3F8082568
:10216C00C4EB041305EB8303DB7E6BB1C4EB0413EC
:10217C0005EB83030022DA7606EB4413D3F804252F
:10218C0022F48032C3F8042506EB44160122C6F86B
:10219C000825C4EB041305EB830383F84D2021467B
:1021AC00286800F0ACFD57E72146286800F0D8FB02
:1021BC0010F0400F1ED0C4EB041305EB8303052273
:1021CC0083F84D209B7E2BB9C4EB041305EB8303E2
:1021DC0001225A76C4EB041305EB830300225A64E4
:1021EC002146286800F08BFD06EB44164023C6F808
:1021FC00083531E72146286800F0B2FB10F0080FD3
:10220C0010D006EB44130822C3F80825C4EB0413C2
:10221C0005EB8303062283F84D202146286800F045
:10222C006EFD19E72146286800F09AFB10F0100F9C
:10223C0020D0C4EB041305EB830300225A64042260
:10224C0083F84D205B7E5BB9C4EB041305EB830371
:10225C001B7E2BB9C4EB041305EB830301225A76C6
:10226C002146286800F04BFD06EB44131022C3F8FE
:10227C000825F1E62146286800F072FB10F0800F6B
:10228C002ED0AB79A3B1C4EB041205EB8202536CD4
:10229C0001335364022B16D83C2303FB0453022254
:1022AC0083F84C2006EB44138022C3F80825D3E6B0
:1022BC003C2303FB0453072283F84D202146286856
:1022CC0000F01DFDEEE73C2303FB045300225A648F
:1022DC00042283F84C2021462846FFF7F9F8E1E761
:1022EC002146286800F03CFB10F4806F10D03C2392
:1022FC0003FB0453092283F84D202146286800F083
:10230C00FEFC06EB44134FF48062C3F80825A3E6E9
:10231C002146286800F024FB10F0020F3FF49CAE1D
:10232C0006EB441606F5A062022393603C2303FBE4
:10233C00045393F84D30012B14D0033B062B3FF67E
:10234C008BAE01A151F823F0F323000811240008EF
:10235C003B2400084D240008612400086520000877
:10236C00612400083C2303FB0453022283F84D2014
:10237C00012283F84C2093F82630023BDBB29342C7
:10238C0009D93C2303FB045393F84C2021462846DF
:10239C00FFF79EF860E6A97941B93C2303FB04538F
:1023AC0093F83D2082F0010283F83D200129E8D109
:1023BC003C2303FB04535B6B002BE2D03C2202FB5F
:1023CC000452128D1344013BB3FBF2F313F0010FD3
:1023DC00D7D03C2303FB045393F83D2082F0010239
:1023EC0083F83D20CDE73C2303FB0453022283F802
:1023FC004D20DB7E012BC4D13C2303FB045383F81B
:10240C004C20BEE73C2303FB0453022183F84D1000
:10241C0083F84C10DB7E012BB3D13C2303FB04531C
:10242C000021D976536823F480335360A9E73C2309
:10243C0003FB0453022283F84D2083F84C20A0E7C1
:10244C003C2303FB0453022283F84D20052283F81E
:10245C004C2096E73C2303FB0453022283F84D20C7
:10246C005A6C01325A64022A08D93C2303FB0453E8
:10247C0000225A64042283F84C2082E73C2303FB9D
:10248C000453022283F84C20D6F8003523F0804305
:10249C0043F00043C6F8003573E700BFF8B50446B7
:1024AC000568284600F065FA012800D0F8BD2068C0
:1024BC0000F052FA0028F9D0206800F04DFA10F420
:1024CC00001F03D023684FF400125A61206800F0FB
:1024DC0043FA10F4801F03D023684FF480125A6122
:1024EC00206800F039FA10F0806F03D023684FF0A9
:1024FC0080625A61206800F02FFA10F0020F02D0AF
:10250C00236802225A61206800F026FA10F0005F5E
:10251C0008D023684FF000525A61D5F8403413F0BC
:10252C00010F25D0206800F017FA10F0807F32D10F
:10253C00206800F011FA10F0080F30D1206800F07C
:10254C000BFA10F0007F31D1206800F005FA10F082
:10255C00100FABD02268936923F0100393612046CF
:10256C00FFF794F82268936943F0100393619DE799
:10257C001021284600F06EF9284600F090F9637A95
:10258C00022B03D02046FEF79DFFCBE701212068EC
:10259C0000F0A4FAF6E72046FFF70BFAC8E720464E
:1025AC00FEF784FF236808225A61C7E7206800F011
:1025BC00A1FB0746002604E0F1B22046FFF732FDEE
:1025CC0001366379B34212D906F00F0327FA03F3ED
:1025DC0013F0010FF4D005EB4613D3F8003513F4C8
:1025EC00004FE9D0F1B22046FFF73CFAE8E7236848
:1025FC004FF000725A61A7E790F8D433012B0ED03C
:10260C0010B50446012180F8D413006800F0A6FA36
:10261C00206800F013F9002084F8D40310BD0220C8
:10262C00704790F8D433012B0BD010B5044601231E
:10263C0080F8D433006800F04DFD002084F8D403FA
:10264C0010BD0220704708B5006800F068FA08BD9C
:10265C00C1EB011100EB810090F84C007047C1EB0D
:10266C00011100EB8100806B704708B5006800F029
:10267C00A3FA08BD08B5006800F093FA08BDC1EBD9
:10268C00011200EB820200209076D07682F82500B1
:10269C0082F8240070472DE9F04F85B01F469DF855
:1026AC0038A09DF83C90BDF840B090F8D433012B85
:1026BC0054D005460C461646D846012380F8D43330
:1026CC00C1EB011300EB830300225A761F75597579
:1026DC0083F8269006F07F029A75FFF7D0FF16F06C
:1026EC00800F29D1C4EB041305EB83030022DA75A8
:1026FC00286800F056FAB9F1010F24D0C4EB04138A
:10270C0005EB830383F818A01FFA88F3C4EB0412BB
:10271C0005EB820213850293CDF80490CDF800A04E
:10272C003B4632462146286800F04CFA002385F8D7
:10273C00D43305B0BDE8F08FC4EB041305EB830371
:10274C000122DA75D4E7BAF1010FD7D10028D5D11F
:10275C00BBF1BC0FD2D94FF0BC08CFE70220E8E7A1
:10276C0082B000230193019B01330193019BB3F1D0
:10277C00706F15D80369002BF5DA002301930369F8
:10278C0043F001030361019B01330193019BB3F1FE
:10279C00706F08D8036913F0010FF4D1002000E02A
:1027AC00032002B070470320FBE784B010B5044649
:1027BC0003A880E80E009DF81130012B21D1A36BEA
:1027CC0023F48033A363E36823F4840323F04003EE
:1027DC00E360E36823F44013E3609DF81830012BA9
:1027EC000AD02046FFF7BCFF9DF80E30012B1CD001
:1027FC00BDE8104004B07047E36843F48013E36015
:10280C00EFE7E36843F04003E3602046FFF7A8FFDF
:10281C009DF8153023B9A36B43F48033A363E3E72E
:10282C00A36B23F48033A363DEE7A36843F00603B2
:10283C00A360A36843F02003A360D9E7836843F047
:10284C000103836000207047836823F001038360D9
:10285C000020704782B000230193019B0133019348
:10286C00019BB3F1706F15D80369002BF5DA0023C7
:10287C000193890141F020010161019B0133019316
:10288C00019BB3F1706F08D8036913F0200FF4D1DA
:10289C00002000E0032002B070470320FBE782B069
:1028AC0000230193019B01330193019BB3F1706FE2
:1028BC0013D80369002BF5DA00230193102303616D
:1028CC00019B01330193019BB3F1706F08D803692D
:1028DC0013F0100FF4D1002000E0032002B0704779
:1028EC000320FBE710B59DF8084084B903334FEA89
:1028FC00930E4FF0000C08E000EB023303F580530D
:10290C0051F8044B1C600CF1010CF445F4D300207D
:10291C0010BD10B5844608464FEA920E02F0030231
:10292C00002305E00CF58051096840F8041B0133C5
:10293C007345F7D37AB10CF5805CDCF800400021CC
:10294C00CBB2DB0024FA03F300F8013B0131013A6E
:10295C0092B2002AF4D110BD4269806910407047D0
:10296C0000EB411000F5A063D0F80805DB681840B7
:10297C007047406900F00100704738B50546C368E0
:10298C0023F0C043C360012913D019BBC36843F0C3
:10299C008043C36000240A2001F024FA0A3428463C
:1029AC00FFF7E7FF08B1C72CF5D9C82C14D00020CD
:1029BC0038BDC36843F00053C36000240A2001F003
:1029CC0011FA0A342846FFF7D4FF0128EDD0C72CA2
:1029DC00F4D9EAE70120EBE70120E9E784B038B548
:1029EC00044605A880E80E000023C4F8003EA36B43
:1029FC0043F40013A363A36B23F40023A363A36B1F
:102A0C0023F48023A363E36813F0400F11D19DF8E6
:102A1C001730012B06D0D4F8003423F00403C4F88B
:102A2C0000340CE0D4F8003443F00403C4F8003450
:102A3C0005E0D4F8003423F00403C4F8003410216A
:102A4C002046FFF707FF054600B101252046FFF79A
:102A5C0026FF00B10125002209E004EB42134FF0E0
:102A6C00FF31C3F808150021C3F80C1501329DF88D
:102A7C0015309342F1D80023A3614FF0FF3363610B
:102A8C00124B9C4217D08023636203F5C003A362F0
:102A9C000F4BC4F800319DF816301BB9A36943F0F5
:102AAC001003A361A2690B4B1343A3612846BDE835
:102ABC00384004B070474FF40073636203F18073C5
:102ACC00A362054BC4F80031E5E700BF00000440E9
:102ADC00E0004000080020A30003E00000F5806C3B
:102AEC00D0F8003423F00303C0F80034D0F80034DD
:102AFC0001F003021343C0F80034012907D0022966
:102B0C000BD141F27073CCF80430002070474BF6B7
:102B1C008033CCF80430002070470120704730B56A
:102B2C0083B0044600250195D0F840340193019BF5
:102B3C0023F02E030193019B43F48073C0F84034BF
:102B4C00642001F04FF9019B23F48073C4F84034E6
:102B5C000A2001F047F9284603B030BD82B00023AB
:102B6C000193D0F840340193019B23F02E03019381
:102B7C00019B13F4805F01D101290CD0019B13F44C
:102B8C00805F05D021B9019B23F48053C0F84034F9
:102B9C00002002B07047019B43F48053C0F84034CE
:102BAC00ECE782B000230193D0F8403401930198F4
:102BBC00C0F3414002B0704700F58060806880B27D
:102BCC00704700002DE9F84391461C469DF82450AF
:102BDC0000EB411606F5A0634FF0FF329A60032D0F
:102BEC007AD8DFE805F0026B021940F29D42DA60F8
:102BFC0019F0800F04D13E4A904207D0002712E012
:102C0C00DA6842F48072DA6000270CE0DA6842F08D
:102C1C006002DA60002706E040F29D62DA6019F08B
:102C2C00800F45D1002700225A60DA6842F0020278
:102C3C00DA60D0F8183401F00F0101228A401343F6
:102C4C00C0F81834836943F00073836119F0800F66
:102C5C0044D14FF00008FFF7A4FF9DF82030022B61
:102C6C003FD00022A30503F0FE534FEAC92909F413
:102C7C00F04943EA0903A90401F440210B43BDF8D0
:102C8C002810C1F30A010B4343EA0803134343F42E
:102C9C008013C6F80035032D01D0012D05D1D6F8CF
:102CAC00003543F00053C6F800353846BDE8F883CC
:102CBC00DA6842F48072DA600027B4E740F2252229
:102CCC00DA6019F0800F01D10027ACE7DA6842F422
:102CDC00C072DA600027A6E70127A4E74FF400488A
:102CEC00B9E7022802D04FF40032BBE70022B9E763
:102CFC000000044000F58060406980B2704770B4F9
:102D0C0083B00023019300EB411101F5A062D1F8CF
:102D1C000035C3F38143D1F800555468866816F02A
:102D2C00200F08D0ED0FE40F2CB9002D5AD0012B39
:102D3C0058D0032B56D01BB3022B21D0D1F8003521
:102D4C0043F08043C1F80035D0F8103413F47F0FF2
:102D5C004CD1D1F8003523F00043C1F80035D1F83F
:102D6C00003543F00043C1F80035019B013301935A
:102D7C00019BB3F57A7F35D81368002BF5DB31E076
:102D8C00D1F8003543F08043C1F80035836813F067
:102D9C00200F21D1C36A13F47F0F16D1D1F800355F
:102DAC0023F00043C1F80035D1F8003543F000435F
:102DBC00C1F80035019B01330193019BB3F57A7F78
:102DCC0010D81368002BF5DB0CE0D1F8003543F07C
:102DDC000043C1F8003505E0D1F8003543F000435D
:102DEC00C1F80035002003B070BC7047D1F8003535
:102DFC0043F00043C1F80035F4E7000000EB41104C
:102E0C00064AC0F81025D0F8003523F0804343F073
:102E1C000043C0F800350020704700BF0000088058
:102E2C0070B584B04B78A34CA04216D08C79012C91
:102E3C002DD00D6A002D5ED0B1F814C005EB0C043A
:102E4C00013CB4FBFCF4A4B2B4F5807F54D94FEA36
:102E5C000C24CC614FF480744EE0012A07D08C888E
:102E6C00B4F5807FE2D11946FFF7C8FF1EE18C7CD8
:102E7C000CB1022CDAD18C79002CD7D100EB431495
:102E8C00D4F80C5525F07005C4F80C55CEE7CC7869
:102E9C001CB18C8ACC61012435E08C7C012C05D0D2
:102EAC00012A21D00C6ACC6101242CE00C6ABC2CC8
:102EBC000DD98C8ACC610C62CC68013C012C02D9F6
:102ECC000124CC601FE00224CC6001241BE0CC6107
:102EDC00CC68013C012C03D90424CC60012412E001
:102EEC000324CC6001240EE00D6A8C8AA542D9D94A
:102EFC00CC61012407E00124CE78002E60D08D8AAD
:102F0C0004FB05F5CD61CD69C5F3120C6A4D05EADC
:102F1C00C4444CEA040C8C7D640704F0C04400EB00
:102F2C00431303F5A06E4CEA0404CEF8104012B122
:102F3C008C69CEF8144000F58065AC6814F0010F74
:102F4C000CBF4FF0010C4FF0000CD3F8004524F0EF
:102F5C000054C3F80045D3F8004544EA4C74C3F858
:102F6C0000458C79012C2DD00024CEF80440D3F8E8
:102F7C0000450394039C24F080440394CC78002CEB
:102F8C007DD0039C44F400440394039C44F000441F
:102F9C000394039CC3F80045002A40F08780CB784B
:102FAC00002B40F083800B6A002B7FD0CA79002A5B
:102FBC007CD18A7C032A72D8DFE802F066806680B6
:102FCC00CD61A0E74E7C0C7C44EAC61444F000446E
:102FDC00CEF80440DEF80C4044F06004CEF80C400F
:102FEC00CC79012C12D08C7C012C1FD0032C1DD041
:102FFC008C7C012CBBD1CC78002CB8D1CC68013C9A
:10300C00032CB4D8DFE804F01F262D34CC78002C28
:10301C00E9D1DEF8044044F48034CEF80440DEF804
:10302C000C4044F04004CEF80C40DCE7CC79012C89
:10303C00DED1CC78012CDBD1DEF8044044F48034B2
:10304C00CEF80440D4E7DEF8044044F40044CEF853
:10305C0004408CE7DEF8044044F00E04CEF8044043
:10306C0085E7DEF8044044F48044CEF804407EE763
:10307C00DEF8044044F44044CEF8044077E7039C67
:10308C0024F40044039480E70333C26A92B2C3F37E
:10309C008F03934203D9836943F020038361002398
:1030AC0000930B8C4A788969FFF71CFC002004B054
:1030BC0070BD00BF000004400000F81F03332A69F4
:1030CC0092B2C3F38F039A42E9D2836943F08063CF
:1030DC008361E4E730B583B0044600230193FFF726
:1030EC00B3FB10212046FFF7B5FB054600B10125C7
:1030FC002046FFF7D4FB00B1012500220AE004EBC7
:10310C004211D1F8003523F0802343F08043C1F8FD
:10311C00003501320F2AF2D9002100E001310F29CC
:10312C0016D804EB411000F5A062D0F8003523F45A
:10313C00004343F04043C0F80035019B0133019339
:10314C00019BB3F57A7FE9D81368002BF5DBE5E733
:10315C004FF0FF33C4F8143463612046FFF76EFB65
:10316C00284603B030BD0000002800F0E08170B5A7
:10317C0082B00446036813F0010F3BD09F4B9B6851
:10318C0003F00C03042B2CD09C4B9B6803F00C031A
:10319C00082B21D06368B3F5803F4FD0B3F5A02F37
:1031AC0052D0964B1A6822F480321A601A6822F4B4
:1031BC0080221A606368002B50D000F00DFE05468B
:1031CC008E4B1B6813F4003F14D100F005FE401B1E
:1031DC006428F5D90320B1E1884B5B6813F4800FA8
:1031EC00D8D0864B1B6813F4003F03D06368002BC8
:1031FC0000F09F81236813F0020F54D07F4B9B6823
:10320C0013F00C0F3ED07D4B9B6803F00C03082B86
:10321C0033D0E368002B68D0794B01221A6000F0A0
:10322C00DBFD0546754B1B6813F0020F54D100F003
:10323C00D3FD401B0228F5D903207FE16F4A1368A8
:10324C0043F480331360B5E76C4B1A6842F4802268
:10325C001A601A6842F480321A60ABE700F0BCFDC9
:10326C000546664B1B6813F4003FC3D000F0B4FD59
:10327C00401B6428F5D9032060E1604B5B6813F4B4
:10328C00800FC6D15D4B1B6813F0020F03D0E368AF
:10329C00012B40F05081594A136823F0F80321693F
:1032AC0043EAC1031360236813F0080F42D063692B
:1032BC006BB3534B0122C3F8802E00F08DFD0546F5
:1032CC004E4B5B6F13F0020F34D100F085FD401BA9
:1032DC000228F5D9032031E1484A136823F0F8039A
:1032EC00216943EAC1031360DDE7454B00221A60F4
:1032FC0000F072FD0546414B1B6813F0020FD2D053
:10330C0000F06AFD401B0228F5D9032016E13C4B66
:10331C000022C3F8802E00F05FFD0546374B5B6F33
:10332C0013F0020F06D000F057FD401B0228F5D910
:10333C00032003E1236813F0040F77D02F4B1B6C91
:10334C0013F0805F33D1002301932C4B1A6C42F0A5
:10335C0080521A641B6C03F080530193019B01256E
:10336C00284B1B6813F4807F23D0A368012B34D027
:10337C00052B38D0214B1A6F22F001021A671A6FF5
:10338C0022F004021A67A368002B3DD000F024FD44
:10339C0006461A4B1B6F13F0020F46D100F01CFDB2
:1033AC00801B41F288339842F3D90320C6E00025F4
:1033BC00D6E7144A136843F48073136000F00CFDD5
:1033CC000646104B1B6813F4807FCED100F004FD31
:1033DC00801B0228F5D90320B0E0084A136F43F094
:1033EC0001031367CFE7054B1A6F42F004021A670B
:1033FC001A6F42F001021A67C5E700BF003802409D
:10340C00000047420070004000F0E6FC0646524BBC
:10341C001B6F13F0020F08D000F0DEFC801B41F292
:10342C0088339842F3D9032088E0EDB9A369002BC7
:10343C0000F08380484A926802F00C02082A51D0AE
:10344C00022B17D0454B00221A6600F0C5FC04462F
:10345C00414B1B6813F0007F42D000F0BDFC001BF9
:10346C000228F5D9032069E03B4A136C23F0805302
:10347C001364DBE7394B00221A6600F0ADFC0546FD
:10348C00354B1B6813F0007F06D000F0A5FC401BE9
:10349C000228F5D9032051E0E369226A1343626ADA
:1034AC0043EA8213A26A5208013A43EA0243E26AEF
:1034BC0043EA0263284A5360284B01221A6600F043
:1034CC008BFC0446244B1B6813F0007F06D100F0E4
:1034DC0083FC001B0228F5D903202FE000202DE0EF
:1034EC0000202BE0012B2BD01B4B5B6803F48001DD
:1034FC00E269914226D103F03F02216A8A4223D12C
:10350C00616A47F6C0721A40B2EB811F1ED103F4F8
:10351C004031A26A5208013AB1EB024F18D103F0C4
:10352C007063E26AB3EB026F14D1002006E0012055
:10353C007047012002E0012000E0002002B070BDC5
:10354C000120FBE70120F9E70120F7E70120F5E76F
:10355C000120F3E70120F1E7003802400000474268
:10356C0008B5334B9B6803F00C03042B5BD0082B82
:10357C005BD12F4B5A6802F03F025B6813F4800F4B
:10358C002CD02B4B5868C0F388104FEA401CBCEB76
:10359C00000C6EEB0E0E4FEA8E1343EA9C634FEA5F
:1035AC008C11B1EB0C0163EB0E03DB0043EA51739E
:1035BC00C90011EB000C43F10003590200234FEA40
:1035CC004C2041EADC51FCF795FF194B5B68C3F3C7
:1035DC00014301335B00B0FBF3F027E0144B586858
:1035EC00C0F388104FEA401CBCEB000C6EEB0E0EC7
:1035FC004FEA8E1343EA9C634FEA8C11B1EB0C013A
:10360C0063EB0E03DB0043EA5173C90011EB000CB2
:10361C0043F10003990200234FEA8C2041EA9C51AC
:10362C00FCF768FFD1E7034800E0034808BD00BF82
:10363C000038024000127A000024F400002800F048
:10364C009B8070B50D4604464F4B1B6803F00F036F
:10365C008B4208D2CBB24C4A1370136803F00F03A1
:10366C008B4240F08B80236813F0020F17D013F0BD
:10367C00040F04D0454A936843F4E05393602368E5
:10368C0013F0080F04D0414A936843F460439360ED
:10369C003E4A936823F0F003A1680B4393602368C0
:1036AC0013F0010F32D06368012B21D09A1E012A2E
:1036BC0025D9364A126812F0020F61D033498A6854
:1036CC0022F0030213438B6000F086FB06462F4B5F
:1036DC009B6803F00C036268B3EB820F16D000F00A
:1036EC007BFB801B41F288339842F0D9032042E0E7
:1036FC00264A126812F4003FE0D101203BE0234A35
:10370C00126812F0007FD9D1012034E01E4B1B68E7
:10371C0003F00F03AB4207D9EAB21B4B1A701B68BC
:10372C0003F00F03AB422DD1236813F0040F06D026
:10373C00164A936823F4E053E1680B4393602368C3
:10374C0013F0080F07D0114A936823F460432169E2
:10375C0043EAC1039360FFF703FF0C4B9B68C3F371
:10376C0003130B4AD35CD8400A4B18600A4B1868F9
:10377C00FDF7C2FD002070BD012070470120FAE763
:10378C000120F8E70120F6E7003C02400038024037
:10379C00F06500086C00002068000020014B1868E0
:1037AC00704700BF6C00002008B5FFF7F7FF044B13
:1037BC009B68C3F38223034AD35CD84008BD00BF87
:1037CC0000380240E865000808B5FFF7E7FF044B36
:1037DC009B68C3F34233034AD35CD84008BD00BF97
:1037EC0000380240E86500080F2303600B4B9A6811
:1037FC0002F0030242609A6802F0F00282609A685A
:10380C0002F4E052C2609B68DB0803F4E0530361EE
:10381C00034B1B6803F00F030B607047003802402A
:10382C00003C024030B583B00446036813F0430FEC
:10383C0015D1236813F00C0F6AD1236813F0200FF5
:10384C0040F0BF80236813F0100F00F0238194F830
:10385C002C20914BC3F8E021002003B030BD8F4BDE
:10386C0000229A6600F0B8FA05468D4B1B6813F0DF
:10387C00006F06D000F0B0FA431B022BF5D90320E1
:10388C00EBE7236813F0010F07D06268A3681B07EE
:10389C0043EA8213824AC2F88430236813F0020F81
:1038AC0015D07F4AD2F884106068E3681B0643EA9F
:1038BC00801301F0E0410B43C2F88430D2F88C3015
:1038CC0023F01F03E16901390B43C2F88C302368E4
:1038DC0013F0400F0AD06268E3681B0643EA8213B8
:1038EC00A26843EA02736E4AC2F884306B4B012221
:1038FC009A6600F071FA0546694B1B6813F0006F6D
:10390C0097D100F069FA401B0228F5D90320A4E7EF
:10391C00624B00221A6700F05FFA0546604B1B6889
:10392C0013F0005F06D000F057FA431B022BF5D9B9
:10393C00032092E7236813F0040F16D0584AD2F8EC
:10394C008810206963691B0643EA801301F0E0418B
:10395C000B43C2F88830D2F88C3023F4F853216A28
:10396C00013943EA0123C2F88C30236813F0080FA5
:10397C0014D04B4AD2F88830216903F0706343EAC3
:10398C008113A16943EA0173C2F88830D2F88C30F4
:10399C0023F44033616A0B43C2F88C303F4B012255
:1039AC001A6700F019FA05463D4B1B6813F0005FCF
:1039BC007FF443AF00F010FA401B0228F4D9032027
:1039CC004BE700230193364B1A6C42F080521A6479
:1039DC001B6C03F080530193019B324A136843F430
:1039EC008073136000F0F8F905462E4B1B6813F436
:1039FC00807F06D100F0F0F9401B0228F5D9032096
:103A0C002BE7274B1B6F13F4407314D0A26A02F4FC
:103A1C0040729A420FD0224B1A6F22F440721F4907
:103A2C000120C1F8400E0020C1F8400E1A671B6F30
:103A3C0013F0010F12D1A36A03F44072B2F5407F68
:103A4C001DD0174A936823F4F813936014490B6F35
:103A5C00A26AC2F30B0213430B67F3E600F0BCF946
:103A6C0005460F4B1B6F13F0020FE4D100F0B4F9B5
:103A7C00401B41F288339842F3D90320EDE6084904
:103A8C008A6822F4F81223F0704323F44073134332
:103A9C008B60DBE70020E0E6001047420000474265
:103AAC00003802400070004000230F2B00F2F6801B
:103ABC0070B582B066E085684FEA430E032404FAC1
:103ACC000EF425EA0405CC6804FA0EF42C43846049
:103ADC00446824EA02044A68C2F300129A40224362
:103AEC0042605DE0DC08083450F8242003F0070540
:103AFC00AD004FF00F0E0EFA05FE22EA0E0E0A690B
:103B0C00AA4042EA0E0240F824205DE0092200E0BF
:103B1C00002202FA0EF22A430234614D45F82420A9
:103B2C00604A94686FEA0C0224EA0C054E6816F49D
:103B3C00801F01D04CEA04055A4CA560E46802EAE7
:103B4C0004054E6816F4001F01D04CEA0405554CD0
:103B5C00E560646802EA04054E6816F4003F01D083
:103B6C004CEA04054F4C6560246822404D6815F4FE
:103B7C00803F01D04CEA04024A4C226001330F2BE7
:103B8C0000F28A8001229A400C6804EA020C32EAA4
:103B9C000404F3D14C6804F00304013C012C8AD9D1
:103BAC004A6802F00302032A09D0C4685D000322AC
:103BBC00AA4024EA02048A68AA402243C2604A68E6
:103BCC0002F00302022A8DD004684FEA430E03224E
:103BDC0002FA0EF224EA02044A6802F0030202FA24
:103BEC000EF2224302604A6812F4403FC6D0002213
:103BFC0001922D4A546C44F480445464526C02F487
:103C0C0080420192019A9C08A51C254A52F8255025
:103C1C0003F0030E4FEA8E0E0F2202FA0EF225EA83
:103C2C000205224A90423FF473AF02F58062904243
:103C3C0022D002F58062904220D002F58062904240
:103C4C001ED002F5806290421CD002F58062904238
:103C5C001AD002F58062904218D002F58062904230
:103C6C0016D002F58062904214D002F58062904228
:103C7C003FF44CAF0A224CE701224AE7022248E704
:103C8C00032246E7042244E7052242E7062240E7E6
:103C9C0007223EE708223CE702B070BD704700BF28
:103CAC0000380140003C0140003802400000024056
:103CBC000AB181617047090481617047002807DBF4
:103CCC0000F01F02400901239340024A42F82030C1
:103CDC00704700BF00E100E0002808DB0901C9B211
:103CEC0000F1604000F5614080F80013704700F06F
:103CFC000F000901C9B2014B1954704714ED00E0D3
:103D0C0000B500F00700C0F1070CBCF1040F28BF90
:103D1C004FF0040C031D062B0FD9C31E4FF0FF3EB2
:103D2C000EFA0CF021EA000199400EFA03FE22EA89
:103D3C000E0241EA02005DF804FB0023EEE70000EE
:103D4C00074AD36823F4E0631B041B0C000200F445
:103D5C00E060034343F0BF6343F40033D360704728
:103D6C0000ED00E010B50446054BD868C0F3022006
:103D7C00FFF7C6FF01462046FFF7AEFF10BD00BFA0
:103D8C0000ED00E008B5FFF799FF08BD08B50B4B37
:103D9C001A6842F400721A601A6842F480621A605F
:103DAC001A6842F480721A600320FFF7C9FF0F20D3
:103DBC00FDF7A2FAFDF78AF8002008BD003C02408E
:103DCC00034A1168034B1B780B441360704700BF08
:103DDC00280B002064000020014B1868704700BFBE
:103DEC00280B002038B50446FFF7F6FF0546B4F162
:103DFC00FF3F02D0044B1B781C44FFF7EDFF401B28
:103E0C00A042FAD338BD00BF6400002058B110B5F1
:103E1C00044643791BB101236371002010BD03716B
:103E2C00FDF770F8F7E70120704748B310B504466A
:103E3C0090F83930FBB1022384F8393022681368CA
:103E4C0023F4403361680B4313602268536B23F0F7
:103E5C000703A1680B4353632268136C23F47F534D
:103E6C0023F03F03E1680B4313640020E06301235C
:103E7C0084F8393010BD80F83830FDF75BF8DAE79C
:103E8C00012070477047704770B5044603685D6841
:103E9C001E6815F0010F16D016F4807F13D01A6827
:103EAC0022F480721A60C36B43F00103C36303688E
:103EBC0001229A60042380F83930002380F83830CE
:103ECC00436903B1984715F0200F18D016F4005F22
:103EDC0015D02268136823F4005313602368202242
:103EEC009A60E36B43F00203E363042384F83930F4
:103EFC00002384F8383063690BB12046984715F0DD
:103F0C00080F18D016F4006F15D02268136823F42C
:103F1C0000631360236808229A60E36B43F0040388
:103F2C00E363042384F83930002384F83830636960
:103F3C000BB12046984715F0040F02D016F4806F91
:103F4C0020D115F0020F16D016F4007F13D0226882
:103F5C00136823F400731360236802229A60E36BE6
:103F6C00E363012384F83930002384F83830236963
:103F7C000BB12046984715F0100F02D016F4805F55
:103F8C000CD170BD2268136823F48063136023681E
:103F9C0004229A602046FFF775FFD2E72268136867
:103FAC0023F480531360236810229A60E36BE3635D
:103FBC00012384F83930002384F838302046FFF789
:103FCC0062FFDEE790F83820012A59D030B403465E
:103FDC00012280F83820022280F8392000EB0112EF
:103FEC00D0698A1C12019A5840EA02420938012809
:103FFC001DD9881C03EB0010406842EA006239BBF3
:10400C001C68656A1F48284010436062186803EBFF
:10401C00011294698461D269093A012A0FD90122EB
:10402C0083F83920002083F8380030BC7047881C96
:10403C0003EB0010406800F07F400243DFE70231E1
:10404C0003EB01114A68196822F07F428A62E6E7A5
:10405C001C68E5690B4828401043E061186803EBC5
:10406C00011294690461D269093A012AD7D8023144
:10407C0003EB01114A68196822F07F420A62CEE70D
:10408C0002207047F0FFFC0010B40B68DBB902682B
:10409C0022F4FF4222F07F024B688C682343CC68E9
:1040AC0023430C6923434C6923438C692343CC6918
:1040BC0023430C6A2343496A0B431A4302600020D2
:1040CC005DF8044B7047036823F4F843CA690C6A23
:1040DC0022434C6A224313430360426822F4FF429A
:1040EC0022F07F024B688C682343CC6823430C6915
:1040FC0023434C69234389690B431A434260DEE72F
:10410C0010B43ABB826802F070420B68013B4C68F9
:10411C0004F1FF3C43EA0C138C6804F1FF3C43EAC6
:10412C000C23CC6804F1FF3C43EA0C330C6904F11A
:10413C00FF3C43EA0C434C6904F1FF3C43EA0C534B
:10414C008969013943EA01631343836000205DF8F8
:10415C00044B7047836823F4700323F47043CA68DC
:10416C0002F1FF3C4A69013A120542EA0C32134350
:10417C008360C26802F070420B68013B4C6804F12A
:10418C00FF3C43EA0C138C6804F1FF3C43EA0C231C
:10419C000C6904F1FF3C43EA0C438969013943EA99
:1041AC0001631343C360D1E7E0B138B50D46044653
:1041BC0090F82C308BB1022384F82C30214651F826
:1041CC00040BFFF761FF626829462068FFF798FF30
:1041DC00012384F82C30002038BD80F82D30FDF7F9
:1041EC0087F8E8E701207047002800F0CC8070B514
:1041FC00044690F83D30002B77D0242384F83D30D2
:10420C002268136823F0010313602268136843F4D7
:10421C00004313602268136823F400431360FFF714
:10422C00C3FA62685A4B9A4264D85A4B98428CBF74
:10423C0000230123002B40F0A8805749A1FB00313B
:10424C008B0C25686A6822F03F0242EA91426A6050
:10425C0021680A6A22F03F0266684D4DAE424FD883
:10426C00013313430B622168CA6922F44F4222F0D6
:10427C00FF026568464B9D424CD8431E6D00B3FB54
:10428C00F5F3013340F6FC70034278D0C3F30B0313
:10429C001A43CA6121680B6823F0C003E269206AE3
:1042AC00024313430B6021688B6823F4034323F010
:1042BC00FF032269E068024313438B602168CB68DB
:1042CC0023F0FF036269A06902431343CB602268A9
:1042DC00136843F00103136000202064202384F84A
:1042EC003D30206384F83E0070BD80F83C30FCF714
:1042FC0041FE82E7294B98428CBF0023012399E7AA
:10430C004FF4967505FB03F3254DA5FB03539B0951
:10431C000133A6E7A668BEB9431E05EB450CB3FBFB
:10432C00FCF30133C3F30B03B3FA83F35B0943BB15
:10433C00C6B9431E05EB4505B3FBF5F30133C3F3D7
:10434C000B0343F40043A3E7431E05EB850C0CEB76
:10435C008C0CB3FBFCF30133C3F30B03B3FA83F301
:10436C005B09E4E7431E05EB850505EB8505B3FB0F
:10437C00F5F30133C3F30B0343F4404388E7042301
:10438C0086E7012384E7012070470120ACE700BFDA
:10439C00A08601007F841E0083DE1B43FF083D00C6
:1043AC00D34D621090F83D30DBB2202B01D00220AF
:1043BC007047242380F83D300268136823F0010312
:1043CC0013600268536A23F0100353620268536A45
:1043DC000B4353620268136843F0010313602023FC
:1043EC0080F83D300020704790F83D30DBB2202B38
:1043FC0001D002207047242380F83D3002681368F6
:10440C0023F0010313600268536A9BB223F00F037D
:10441C00194389B251620268136843F001031360B7
:10442C00202380F83D300020704770B54D6803683C
:10443C00DC68C4F30B4425444FEAC21C03EBC213E3
:10444C00D3F8884004F47044C3F888400B680468BF
:10445C00E668C6F30B463344013304EBC21443EA5B
:10446C000543C4F88830CD680368DC68C4F30A04DB
:10447C00254403EBC213D3F88C4004F47044C3F806
:10448C008C408B680468E668C6F30A063344013333
:10449C0004EBC21443EA0543C4F88C30036803EB05
:1044AC00C213D3F8944024F00704C3F89440036873
:1044BC0003EBC2130C69C3F8944091F831E091F806
:1044CC0032508E69036803EBC213D3F89C4000246E
:1044DC00C3F89C4091F8303043EA0E2343EA05437D
:1044EC00056805EBC21543EA0663C5F89C30036802
:1044FC0003EBC213D3F8985025F0FF05C3F898507E
:10450C00036803EBC2134D69C3F89850036803EBBF
:10451C00C213D3F8A05025F4E06525F00705C3F8C5
:10452C00A0500D6A036803EBC213CE693543C3F880
:10453C00A050036803EBC213D3F8AC50C3F8AC40E3
:10454C00036803EBC2134A6AC3F8AC200A6982B150
:10455C00531E062B05D8DFE803F03C0D08060404B7
:10456C000A00012206E0022204E0022202E00222FA
:10457C0000E0042203686344D3F8B04004F0E02464
:10458C00C3F8B0408B6A02FB03F44B680D685B1BED
:10459C0002FB03F303330268624443EA0443C2F8A8
:1045AC00B03003686344D3F8B42022F4FF6222F0E5
:1045BC000702C3F8B42003686344CA6AC3F8B42082
:1045CC0003686344D3F8842042F00102C3F88420CA
:1045DC0070BD0322CEE70000002872D038B5044627
:1045EC0090F8A130002B67D0022384F8A130226808
:1045FC00936923F07043936121688A696368A068AA
:10460C000343E06803432069034313438B61216830
:10461C008A682D4B1A408A6020688268A169656996
:10462C0041EA05410A4382602168CA681A40CA609F
:10463C002068C268216AE56941EA05410A43C26003
:10464C0021680A691A400A6120680269A16A656AD0
:10465C0041EA05410A43026121684A6913404B61F2
:10466C00E06A21684B69226B42EA004213434B61BA
:10467C0094F8350094F836301B042168CA6A02F0AD
:10468C007F42CA622168CA6A43EA002394F8340064
:10469C0003431343CB622268536B43F0060353630B
:1046AC002268936943F0010393610020C4F8A400CD
:1046BC00012384F8A13038BD80F8A030FCF7AEFCA3
:1046CC0092E70120704700BF00F800F07047704778
:1046DC00704770B5044603689D6B5E6B15F0040F54
:1046EC0002D016F0040F12D115F0020F02D016F002
:1046FC00020F21D115F0010F02D016F0010F32D1AB
:10470C0015F0080F02D016F0080F3DD170BD5A6B92
:10471C0022F004025A6303680422DA63D0F8A4304E
:10472C0043F00103C0F8A43080F8A120002380F8E6
:10473C00A030FFF7CBFFD7E72268536B23F00203BF
:10474C00536323680222DA63D4F8A4301343C4F809
:10475C00A430042384F8A130002384F8A030204630
:10476C00FFF7B4FFC6E72268536B23F001035363D2
:10477C0022680123D36384F8A130002384F8A0308D
:10478C002046FFF7A4FFBBE72268536B23F0080316
:10479C00536323680822DA63012384F8A1300023D1
:1047AC0084F8A0302046FFF793FFAFE7F8B590F8F8
:1047BC00A030012B2CD004460D461646012780F85C
:1047CC00A070022380F8A1304FF0340C0CFB020CCB
:1047DC000CF1380C8E46BEE80F00ACE80F00BEE8BA
:1047EC000F00ACE80F00BEE80F00ACE80F00DEF8DD
:1047FC000030CCF80030324629462046FFF715FE33
:10480C0023685F6284F8A170002084F8A000F8BDD2
:10481C000220FCE700285AD010B50446436A33B98D
:10482C004368B3F5827F05D00023C36102E0002307
:10483C00036143610023A36294F85130002B40D0F4
:10484C00022384F851302268136823F0400313606C
:10485C00636803F48273A26802F404421343E268AF
:10486C0002F400621343226902F0020213436269EC
:10487C0002F001021343A26902F400721343E269CD
:10488C0002F038021343226A02F080021343A26A38
:10489C0002F40052216813430B60638B03F0040392
:1048AC00626A02F01002216813434B602268D369DC
:1048BC0023F40063D36100206065012384F8513038
:1048CC0010BD84F850302046FCF78AFCB8E7012074
:1048DC00704710B4036A046A24F00104046284690A
:1048EC0024F0F00C4CEA021223F00A030B43826111
:1048FC0003625DF8044B704710B4036A046A24F039
:10490C0010040462846924F4704C4CEA023223F0E3
:10491C00A00343EA0113826103625DF8044B704704
:10492C00836823F070030B4343F0070383607047E5
:10493C0090F83D30DBB2012B37D1022380F83D30AB
:10494C000268D36843F00103D3600368194A9342A9
:10495C0020D0B3F1804F1DD0A2F57C42934219D0E8
:10496C0002F58062934215D002F58062934211D019
:10497C0002F5784293420DD002F57052934209D061
:10498C00A2F59432934205D01A6842F001021A60E3
:10499C00002070479A6802F00702062A07D01A68AE
:1049AC0042F001021A60002070470120704700207D
:1049BC00704700BF00000140704770477047704758
:1049CC0070B504460368DE681D6915F0020F10D03F
:1049DC0016F0020F0DD06FF002021A61012303775B
:1049EC0003689B6913F0030F5ED0FFF7E6FF00230B
:1049FC00237715F0040F12D016F0040F0FD0236894
:104A0C006FF004021A610223237723689B6913F465
:104A1C00407F4FD02046FFF7D0FF0023237715F0BF
:104A2C00080F12D016F0080F0FD023686FF0080291
:104A3C001A61042323772368DB6913F0030F40D03A
:104A4C002046FFF7BAFF0023237715F0100F12D082
:104A5C0016F0100F0FD023686FF010021A610823A4
:104A6C0023772368DB6913F4407F31D02046FFF7AE
:104A7C00A4FF0023237715F0010F02D016F0010FCD
:104A8C002DD115F0800F02D016F0800F2FD115F01C
:104A9C00400F02D016F0400F31D115F0200F02D08C
:104AAC0016F0200F33D170BDFFF786FF2046FFF7BD
:104ABC0085FF9CE72046FFF77FFF2046FFF77EFF30
:104ACC00ABE72046FFF778FF2046FFF777FFBAE702
:104ADC002046FFF771FF2046FFF770FFC9E72368F8
:104AEC006FF001021A612046FBF74EFFC9E72368FD
:104AFC006FF080021A61204600F07DF9C7E7236849
:104B0C006FF040021A612046FFF759FFC5E7236892
:104B1C006FF020021A61204600F06CF9C3E7000028
:104B2C000368344A904212D0B0F1804F0FD0A2F5F6
:104B3C007C4290420BD002F58062904207D002F585
:104B4C008062904203D002F57842904203D123F068
:104B5C0070034A681343274A90422AD0B0F1804F21
:104B6C0027D0A2F57C42904223D002F5806290427D
:104B7C001FD002F5806290421BD002F57842904221
:104B8C0017D002F57052904213D002F58062904219
:104B9C000FD002F5806290420BD0A2F59832904271
:104BAC0007D002F58062904203D002F580629042F9
:104BBC0003D123F44073CA68134323F080034A697A
:104BCC00134303608B68C3620B688362094B984282
:104BDC0003D003F58063984201D10B690363012371
:104BEC004361036913F0010F03D0036923F0010340
:104BFC00036170470000014040B310B5044690F8C3
:104C0C003D30F3B1022384F83D30214651F8040BBA
:104C1C00FFF786FF012384F8463084F83E3084F891
:104C2C003F3084F8403084F8413084F8423084F8C6
:104C3C00433084F8443084F8453084F83D3000200B
:104C4C0010BD80F83C30FCF701FBDBE7012070471E
:104C5C0010B4846824F47F4C42EA03220A4342EAEB
:104C6C000C0282605DF8044B704790F83C30012BCD
:104C7C0078D010B50446012380F83C30022380F82C
:104C8C003D300268936823F47F4323F077039360ED
:104C9C000B68602B4CD029D8402B54D00CD9502BFE
:104CAC0022D1CA6849680068FFF713FE50212068BA
:104CBC00FFF736FE002005E0202B0DD009D9302B54
:104CCC000AD00120012384F83D30002384F83C30C5
:104CDC0010BD0BB1102B05D119462068FFF720FE33
:104CEC000020EFE70120EDE70120EBE7B3F5805F53
:104CFC0034D0B3F5005F0CD1CB684A688968006882
:104D0C00FFF7A6FF2268936843F48043936000206A
:104D1C00D8E7702B24D1CB684A6889680068FFF704
:104D2C0097FF2268936843F0770393600020C9E7EC
:104D3C00CA6849680068FFF7DFFD60212068FFF74B
:104D4C00EFFD0020BEE7CA6849680068FFF7C1FDA7
:104D5C0040212068FFF7E4FD0020B3E70020B1E715
:104D6C000120AFE70220704790F83C20012A3DD08B
:104D7C0010B40346012280F83C20022280F83D202A
:104D8C0002685068946820F0700C086840EA0C00C7
:104D9C0050601A68164882421AD0B2F1804F17D070
:104DAC00A0F57C40824213D000F5806082420FD087
:104DBC0000F5806082420BD000F57840824207D02B
:104DCC0000F57050824203D0A0F59430824204D199
:104DDC0024F08004496821439160012283F83D202E
:104DEC00002083F83C005DF8044B704702207047AC
:104DFC000000014070477047026802F10C0353E851
:104E0C00003F23F490730C3242E800310029F3D1B7
:104E1C00026802F1140353E8003F23F0010314323B
:104E2C0042E800310029F3D1036B012B05D020237C
:104E3C0080F84230002303637047026802F10C03D0
:104E4C0053E8003F23F010030C3242E800310029F4
:104E5C00F3D1ECE710B504460268136923F4405310
:104E6C00C1680B431361836802691A4343691A438F
:104E7C00C3691A430168CB6823F4164323F00C036F
:104E8C001343CB600268536923F4407381690B436D
:104E9C0053610368314A934206D002F58062934213
:104EAC0002D0FEF781FC01E0FEF78EFCE369B3F55E
:104EBC00004F29D00021031849411B1841F1000172
:104ECC00C90041EA5371DB00181863684FEA83028A
:104EDC004FEA937341F10001FBF70CFB204AA2FB54
:104EEC0000314909642303FB11031B013233A2FB7C
:104EFC0003235B0903F0F00202EB011203F00F0332
:104F0C00216813448B6010BD0023021843EB03018E
:104F1C00121841F10001C90041EA5271D200101877
:104F2C0041F10001626892185B41FBF7E3FA0C4A0D
:104F3C00A2FB00314909642303FB1103DB0032336C
:104F4C00A2FB03235B095A0002F4F87202EB011274
:104F5C0003F00703216813448B60D4E70010014071
:104F6C001F85EB512DE9F04383B005460E461746DD
:104F7C009946DDF828802B681C6836EA04040CBFBF
:104F8C0001240024BC4228D1B8F1FF3FF3D0FEF736
:104F9C0023FFA0EB0900404523D8B8F1000F22D025
:104FAC002B68DA6812F0040FE5D0802EE3D0402E87
:104FBC00E1D01A6812F0080FDDD0002401941A68B1
:104FCC0001925B680193019B2846FFF715FF0823AC
:104FDC006B6485F84040012000E0002003B0BDE880
:104FEC00F0830320FAE70320F8E760B310B504461A
:104FFC0090F8413013B3242384F841302268D368ED
:10500C0023F40053D3602046FFF724FF2268136972
:10501C0023F4904313612268536923F02A035361EC
:10502C002268D36843F40053D360002060642023CB
:10503C0084F8413084F84230606310BD80F8403011
:10504C00FCF71CF9D7E7012070472DE9F04182B03D
:10505C001E4690F84130DBB2202B56D104460D464B
:10506C009046002955D00AB901204FE00023436433
:10507C00212380F84130FEF7AFFE0746A4F82480C8
:10508C00A4F82680A368B3F5805F02D04FF0000827
:10509C0014E023692BB34FF000080FE0202384F8B1
:1050AC004130032032E038F8023B2268C3F3080396
:1050BC005360E28C92B2013A92B2E284E38C9BB2DE
:1050CC0093B100963B46002280212046FFF74AFF11
:1050DC000028E3D1002DE6D015F8012B23685A6087
:1050EC00E7E7A8460025E9E700963B460022402169
:1050FC002046FFF737FF18B9202384F8413005E02C
:10510C00202384F84130032000E0022002B0BDE8E7
:10511C00F0810120FAE72DE9F04182B01E4690F8AB
:10512C004230DBB2202B59D104460D469046002963
:10513C0058D00AB9012052E000234364222280F89F
:10514C0042200363FEF748FE0746A4F82C80A4F81F
:10515C002E80A368B3F5805F02D04FF000081CE0EE
:10516C00236913B14FF0000817E0A846002514E09E
:10517C00202384F84230032031E023685B68C3F3BA
:10518C00080328F8023B03E023685B682B700135A9
:10519C00E28D92B2013A92B2E285E38D9BB2C3B139
:1051AC0000963B46002220212046FFF7DBFE00281C
:1051BC00DED1002DE1D0A368B3F5805FE4D013B944
:1051CC002369002BE0D023685B6803F07F032B700E
:1051DC00DDE7202384F84230002000E0022002B0FA
:1051EC00BDE8F0810120FAE7034AD2F8883043F495
:1051FC007003C2F88830704700ED00E008B5037802
:10520C00DBB20B2B00D008BDD0F87C33002BFAD0CE
:10521C009B699847F7E738B50446002306E003F18D
:10522C00E00204EB82020021516001330F2BF6D90E
:10523C00002304E0E218002182F81C110133B3F5BD
:10524C00007FF7D30025257065700123A370C4F887
:10525C00C45323764022A271657684F81C5384F8DB
:10526C001D3384F81F5384F81E534FF48072294663
:10527C0004F11C00FBF70CF84FF40072294604F5FE
:10528C008E70FBF705F8C4F82653C4F82A53C4F8FB
:10529C002E53C4F83253A4F836533E22294604F553
:1052AC004E70FAF7F5FF284638BD70B584B0044649
:1052BC004578072D00F22C81DFE815F00800480036
:1052CC0069009A00BF00E500FE001701082100F0FC
:1052DC0015FE18B1032821D0012509E194F82D33CE
:1052EC00A3710125657002930026019694F81D3375
:1052FC00009394F81C3380222179204600F009FF9A
:10530C00A3790293019694F81D33009394F81C33FF
:10531C0032466179204600F0FCFEE9E094F81E3339
:10532C000133DBB284F81E33032B03D90D23237016
:10533C000125DDE06179204600F013FF217920463C
:10534C0000F00FFF002323700125D1E0122100F0A3
:10535C00D5FD10B902236370CAE0032840F0C88061
:10536C0094F81E330133DBB284F81E33032B02D9BD
:10537C000D232370BCE06179204600F0F2FE217908
:10538C00204600F0EEFE002363702370B0E0012194
:10539C0000F00AFE18B1032824D00125A8E0022051
:1053AC00FCF712F9012584F81C5303236370A379CD
:1053BC0002930026019694F81D3300932B4680220D
:1053CC002179204600F0A5FEA3790293019694F86A
:1053DC001D33009394F81C3332466179204600F05B
:1053EC0098FE85E00D2323700023637001257FE078
:1053FC00092100F09EFD18B904236370012577E0A4
:10540C00032801D0012573E094F81E330133DBB27D
:10541C0084F81E33032B03D90D232370012567E079
:10542C006179204600F09DFE2179204600F099FE1E
:10543C0000236370237001255AE0B0F83A1300F092
:10544C0078FD18B905236370012551E0032801D0BC
:10545C0001254DE094F81E330133DBB284F81E3382
:10546C00032B03D90D232370012541E061792046DC
:10547C0000F077FE2179204600F073FE0023637064
:10548C002370012534E090F8341319B906234370C6
:10549C0001252DE0FF2300F58E7200F065FD18B993
:1054AC0006236370012523E0032801D001251FE0AA
:1054BC000623637001251BE090F8351319B90723F7
:1054CC004370012514E0FF2300F58E7200F04CFDB3
:1054DC0018B90723637001250AE0032801D00125C0
:1054EC0006E007236370012502E090F8365315B9E6
:1054FC00284604B070BDFF2300F58E72294600F0DB
:10550C0033FD05460028F3D0032803D00125EFE72F
:10551C000125EDE70025EBE7D8B170B50E46044642
:10552C0080F8CC230025C0F87C53C0F88053FFF7DB
:10553C0072FE84F8235384F8205384F8215384F8A2
:10554C0022530EB1C4F8D4632046FBF7CFFF0020E2
:10555C0070BD022070470A4651B1D0F880334BB968
:10556C00591CC0F88013DE3340F82320002070470C
:10557C00022070470220704790F83C338B4203D9CD
:10558C0080F82413002070470220704710B50446A1
:10559C0000200BE04FF01A0C0CFB0E4E9EF849C38A
:1055AC009C451CD0FF2B1AD00130C0B2012815D855
:1055BC0086464FF01A0C0CFB004C9CF847C38C45EC
:1055CC0001D0FF29F0D14FF01A0C0CFB0E4C9CF8BB
:1055DC0048C39445DED0FF2AE6D1DBE7FF2010BD9F
:1055EC0010B50446FBF7FEFF01212046FBF7C8FF70
:1055FC00002010BD30B587B0044602238DF817305B
:10560C0090F82133DBB2012B11D02378DBB20B2BBA
:10561C007BD8DFE813F00F002100450011017A0060
:10562C007D00EE0092009C00A600C200080103233E
:10563C000370EAE794F82033002B66D00123237023
:10564C00C820FBF7C1FF2046FBF7DCFF002384F8E2
:10565C001C33C4F8C83358E094F82333012B0FD013
:10566C00D4F8C833B3F57A7F13D994F81F330133C8
:10567C00DBB284F81F33032B08D90D23237044E0CD
:10568C00002384F81F33022323703EE00023237091
:10569C003BE00A33C4F8C8330A20FBF795FF34E02B
:1056AC00D4F8D43313B10421204698476420FBF777
:1056BC008BFF2046FBF748FF84F81D03052323705E
:1056CC000021204600F03AFD60718021204600F058
:1056DC0035FD01462071A37902930025019594F8BC
:1056EC001D33009394F81C338022204600F011FDEA
:1056FC00A3790293019594F81D33009394F81C330D
:10570C002A466179204600F004FD002007B030BD28
:10571C002046FFF7CAFD8DF817009DF81730002BB7
:10572C00F3D184F8243394F83733012B02D00723B8
:10573C002370EAE708232370E7E7D4F8D433002B6F
:10574C00E3D001212046984708232370DDE794F825
:10575C003D13204600F039FC0028D6D109232370D4
:10576C00D3E794F83F3313F0200F02D10A232370B0
:10577C00CBE70121204600F039FC8DF817009DF88D
:10578C00173013B90A232370BFE79DF81730DBB22B
:10579C00032BBAD10A232370B7E7D4F88033002B3C
:1057AC00B3D00023C4F87C3373B1D4F87C33EBB1A1
:1057BC009B6820469847B0B906232370D4F8D4339D
:1057CC00032120469847A0E703F1DE0254F822207B
:1057DC00107994F84713884202D00133DBB2E3E727
:1057EC00C4F87C23E1E70D2323708EE70D2323708F
:1057FC008BE7D4F87C339BB11B69204698478DF816
:10580C0017009DF8173013B90B2323707DE79DF813
:10581C001730DBB2022B7FF478AF0D23237074E7C3
:10582C000D23237071E7D4F87C33002B3FF46DAF5C
:10583C005B692046984768E7002384F821332046AB
:10584C00FFF7E9FCD4F87C332BB1DB682046984792
:10585C000023C4F87C33D4F8D43313B1052120468B
:10586C00984794F82233DBB2012B03D02046FBF788
:10587C00B9FE4AE7002384F822332046FFF7B0FE36
:10588C0043E7C0F8C413704708B5D0F8C4230132FD
:10589C00C0F8C423FFF7B2FC08BD012380F8233302
:1058AC007047002380F8233370470346012280F8A9
:1058BC002023002083F8210383F82203704738B596
:1058CC000446012380F82133002580F8205380F80A
:1058DC002353FBF78FFE2179204600F042FC6179BF
:1058EC00204600F03EFC284638BD000003468C469E
:1058FC00002970D0097880F826139CF8011080F8E4
:10590C0027139CF802109CF8030041EA0021A3F82D
:10591C0028139CF8041083F82A139CF8051083F8BC
:10592C002B139CF8061083F82C139CF8071083F8A3
:10593C002D1393F81D0301282DD9022840D00320E4
:10594C00082A49D99CF808209CF8091042EA01223F
:10595C00A3F82E239CF80A209CF80B1042EA012293
:10596C00A3F830239CF80C209CF80D1042EA01227D
:10597C00A3F832239CF80E2083F834239CF80F20D4
:10598C0083F835239CF8102083F836239CF81120DB
:10599C0083F83723704720290ED8082907D30839F4
:1059AC00C9B20E4820FA01F111F0010F0FD10821F4
:1059BC0083F82D130020C3E74029F8D10020BFE75E
:1059CC00082906D0082183F82D130020B8E7002001
:1059DC00B6E70020B4E70220704700BF01010001C8
:1059EC000B7803704B7843708B788370CB78C370D3
:1059FC000B79022B28BF022303714B7943718B79EE
:105A0C008371CB79C3710B7A0372704710B58646DC
:105A1C0013780B7053784B7093788B7092F803C09B
:105A2C0081F803C01379507943EA00238B80947971
:105A3C008C715A1E92B2B2F5007F0CD200209EF8E7
:105A4C001D23DAB90CF00302022A06D052B9402BFE
:105A5C0019D9032017E00320F1E7B3F5007F12D921
:105A6C00032010E0012A03D0032A01D003200AE00E
:105A7C00013CE4B20F2C06D9032004E0012A03D028
:105A8C00022A1ED0032010BD0CF00302022A00D003
:105A9C001AB9402BF7D90320F5E7012A03D0032AC2
:105AAC0009D00320EFE7013CE4B20F2C1AD8402BAD
:105ABC00E9D90320E7E7BCB1B3F5806FE3D3104617
:105ACC00E1E71CF0030C03D1082BDCD00320DAE750
