:020000040800F2
:1000000000000520F59E0008C1150008C315000872
:10001000C5150008C7150008C91500080000000034
:10002000000000000000000000000000CB150008E8
:10003000CD15000800000000CF150008D1150008FC
:10004000459F0008459F0008459F0008459F000800
:10005000459F0008459F0008459F0008459F0008F0
:10006000459F0008459F0008459F0008459F0008E0
:10007000459F0008459F0008459F0008459F0008D0
:10008000459F0008459F0008459F0008459F0008C0
:10009000459F0008459F0008459F0008459F0008B0
:1000A000459F0008459F0008459F0008459F0008A0
:1000B000459F0008459F0008459F0008459F000890
:1000C000459F0008459F0008459F0008459F000880
:1000D000459F0008459F0008459F0008459F000870
:1000E000459F0008459F0008459F0008459F000860
:1000F000459F0008459F0008459F0008459F000850
:10010000459F0008459F0008459F0008459F00083F
:10011000459F0008459F0008D5150008459F000829
:10012000459F0008459F0008459F0008459F00081F
:10013000459F0008459F0008459F0008459F00080F
:10014000459F0008459F0008459F0008E5150008E9
:10015000459F0008459F0008459F0008459F0008EF
:10016000459F0008459F0008459F0008459F0008DF
:10017000459F0008459F0008459F000800000000BB
:10018000459F0008459F0008459F0008459F0008BF
:10019000459F0008459F0008459F0008459F0008AF
:1001A000F5150008459F000805160008459F000842
:1001B000459F0008459F0008459F0008459F00088F
:0801C000459F0008459F00085F
:1001C8000348044B834202D0034B03B118477047DE
:1001D8009000002090000020000000000548064B19
:1001E8001B1AD90F01EBA301491002D0034B03B12D
:1001F8001847704790000020900000200000000081
:1002080010B5064C237843B9FFF7DAFF044B13B156
:100218000448AFF300800123237010BDD0010020F3
:1002280000000000489F000808B5044B1BB10449B2
:100238000448AFF30080BDE80840CFE700000000A5
:10024800D4010020489F000870B50D4E0D4D761B57
:10025800B61006D0002455F8043B01349847A6424E
:10026800F9D1094E094D761B09F06AFEB61006D081
:10027800002455F8043B01349847A642F9D170BDD3
:10028800989F0008989F00089C9F0008989F000866
:10029800024B0146186800F0BFB800BF00000020FC
:1002A800024B0146186800F055B800BF0000002056
:1002B800830730B548D0541E002A3FD0CAB203463F
:1002C80001E0013C3AD303F8012B9D07F9D1032C37
:1002D8002DD9CDB245EA05250F2C45EA054536D975
:1002E800A4F1100222F00F0C03F1200EE6444FEAAD
:1002F800121C03F1100242E9045542E9025510327A
:100308007245F8D10CF1010214F00C0F03EB021244
:1003180004F00F0C13D0ACF1040323F003030433EF
:10032800134442F8045B9342FBD10CF003042CB154
:10033800CAB21C4403F8012B9C42FBD130BD644671
:100348001346002CF4D1F9E703461446BFE71A46D2
:10035800A446E0E7002958D030B551F8043C83B0F2
:10036800002BA1F10404B8BFE418019000F0C0F814
:10037800284A0198136833B1A3420DD9216804EBC8
:10038800010C63452FD06360146003B0BDE83040B2
:1003980000F0B0B8A34210D81A465B68002BF9D118
:1003A800116802EB010C644519D02FD363605460C7
:1003B80003B0BDE8304000F09DB8116802EB010CB5
:1003C800A44516D022D8216804EB010C6345EDD171
:1003D8001D685B682944C4E900135460D5E72368A5
:1003E80019441160D1E71D685B682944C4E900130A
:1003F800CAE7246821445418A3421160C5D1D3E93F
:1004080000432144C2E90013BFE770470C2303608F
:10041800BBE700BFEC010020F8B5CD1C25F00305B3
:1004280008350C2D38BF0C25002D064623DBA942C4
:1004380021D8254F00F05CF83A6822B3144603E04F
:1004480063682246FBB11C4623685B1BF8D40B2B60
:1004580015D8636894420CBF3B605360304600F087
:1004680049F804F10B00231D20F00700C21A01D03F
:100478001B1AA350F8BD0C2333600020F8BD23607D
:100488001C442560EAE77968C9B12946304600F07E
:100498001DF8431C0CD0C41C24F00304A04205D052
:1004A800211A304600F012F8013001D02560D5E756
:1004B8000C233046336000F01DF80020F8BD3046AC
:1004C80000F004F87860E0E7EC01002038B5074D4B
:1004D8000022044608462A6000F00EF8431C00D0AB
:1004E80038BD2B68002BFBD0236038BDF4010020F9
:1004F800704700BF704700BF044A05491368002BC6
:1005080008BF0B461844106018467047F8010020D1
:100518008011002053B94AB9002908BF00281CBF20
:100528004FF0FF314FF0FF3000F06AB9ADF1080C21
:100538006DE904CE00F006F8DDF804E0DDE90223F9
:1005480004B070472DE9F047089D0C46002B4ED1AA
:1005580094468C458646B2FA82F262D94AB1C2F113
:100568002003914020FA03F30CFA02FC194300FA25
:1005780002FE4FEA1C471FFA8CF6B1FBF7F44FEA6C
:100588001E4307FB141143EA014304FB06F1994299
:100598000AD91CEB030304F1FF3080F01381994260
:1005A80040F21081023C6344591A1FFA8EF3B1FBE2
:1005B800F7F007FB101143EA014300FB06F69E42E1
:1005C8000AD91CEB030300F1FF3180F0FD809E4245
:1005D80040F2FA80634402389B1B40EA0440002141
:1005E8001DB1D3400022C5E90032BDE8F0878B4237
:1005F80005D90DB1C5E9000100210846F5E7B3FAB0
:1006080083F1002946D1A34202D39042C0F0F18081
:10061800861A64EB03030120002DE6D0C5E90063C8
:10062800E3E7002A40F09180A1EB0C044FEA1C4854
:100638001FFA8CF70121B4FBF8F64FEA1E4308FBBA
:10064800164443EA044307FB06F0984208D91CEB1A
:10065800030306F1FF3402D2984200F2CE80264608
:100668001C1A1FFA8EF3B4FBF8F008FB104443EA97
:10067800044300FB07F79F4208D91CEB030300F172
:10068800FF3402D29F4200F2B1802046DB1B40EAD1
:100698000640A5E7C1F120068B4022FA06F71F4362
:1006A80020FA06FC04FA01F343EA0C03F44000FACA
:1006B80001F8380C4FEA1349B4FBF0FE1FFA87FC27
:1006C80000FB1E4449EA04440EFB0CF9A14502FA5A
:1006D80001F20AD93C190EF1FF3A80F08580A14554
:1006E80040F28280AEF1020E3C44A4EB09041FFAEA
:1006F80083F9B4FBF0F300FB134449EA044403FB19
:100708000CFCA44507D93C1903F1FF3068D2A44575
:1007180066D9023B3C4443EA0E40A0FB0293A4EB9B
:100728000C049C42CE469C4652D34FD055B1B8EBF0
:100738000E0364EB0C0404FA06F6CB40CC401E43CF
:10074800C5E900640021BDE8F087C2F1200320FA62
:1007580003F10CFA02FC24FA03F394400C434FEA29
:100768001C4800FA02FE1FFA8CF7B3FBF8F008FBEE
:100778001031230C43EA014300FB07F1994208D9E1
:100788001CEB030300F1FF362CD299422AD9023818
:1007980063445B1AA4B2B3FBF8F108FB113344EAD3
:1007A800034401FB07F3A34208D91CEB040401F13D
:1007B800FF3613D2A34211D902396444E41A41EA3C
:1007C800004138E70446EFE6084605E7C845ADD2DC
:1007D800B9EB020E63EB070C0138A7E73146EDE7EA
:1007E800034698E73046D4E7D6467EE763440238A6
:1007F8004CE70646234608460EE7023E63442FE7C9
:10080800704700BF064B074A1A6000225A609A6078
:10081800DA604FF4006119615A619A61704700BF4C
:100828005C050020002C01402DE9F04F91B0002418
:100838000B940C940D940E940F94AC4B1A6B42F0DD
:1008480010021A631A6B02F010020092009A1A6BD7
:1008580042F040021A631A6B02F040020192019AB8
:100868001A6B42F002021A631A6B02F00202029239
:10087800029A1A6B42F008021A631A6B02F0080215
:100888000392039A1A6B42F004021A631A6B02F07D
:1008980004020492049A1A6B42F001021A631A6B5A
:1008A80002F001020592059A1A6B42F400721A636B
:1008B8001A6B02F400720692069A1A6B42F480725E
:1008C8001A631A6B02F480720792079A1A6B42F441
:1008D80080621A631A6B02F480620892089A1A6B93
:1008E80042F020021A631A6B02F020020992099A58
:1008F8001A6B42F080021A631B6B03F080030A93A1
:100908000A9B012220217A4804F023FADFF80082AA
:1009180022460E21404604F01CFA2246082175485A
:1009280004F017FA01224FF48051404604F011FAFE
:1009380022464FF40051704804F00BFA2246C821B1
:100948006E4804F006FA4FF0080BCDF82CB00C9462
:100958000D940BA96A4804F0F3F84FF480730B93D5
:100968000C940D94DFF8ACA10BA9504604F0E8F8FC
:1009780043F623430B9302260C960D9403270E97F8
:100988004FF00A09CDF83C900BA9504604F0D8F86E
:100998004FF400730B9312230C9301250D950E94BD
:1009A80004230F930BA9504604F0CAF84FF4805360
:1009B8000B930C940D940BA9524804F0C1F84023F2
:1009C8000B934FF490130C930D940BA9484804F023
:1009D800B7F820230B930C950D940E940BA944485B
:1009E80004F0AEF841F20C030B930C950D940E94A1
:1009F8000BA9404604F0A4F84FF400530B930C9451
:100A08000D940BA9404804F09BF8CDF82CB00C9538
:100A18000D940E970BA9374804F092F84FF0100B7D
:100A2800CDF82CB00C940D940BA9314804F088F83B
:100A380048F204030B930C940D940BA92E4804F070
:100A48007FF80B960C950D940E970BA9404604F071
:100A580077F84FF400530B930C950D940E940BA953
:100A6800254804F06DF84FF400530B934FF490139E
:100A78000C930D940BA9404604F062F8CDF82CB005
:100A88000C960D940E97CDF83C900BA91A4804F0DB
:100A980057F8C8230B930C950D940E940BA917487F
:100AA80004F04EF805250B950C960D940E97CDF88D
:100AB8003C900BA9144804F043F804230B930C94BE
:100AC8000D940BA90D4804F03BF828230B930C96C2
:100AD8000D940E97CDF83C900BA90C4804F030F813
:100AE8004FF440430B930C9616E000BF00380240C9
:100AF800000C024000280240001C0240001802407E
:100B08000010024000240240000802400000024099
:100B180000200240000402400D940E940F950BA98A
:100B2800504604F00DF811B0BDE8F08F08B5026822
:100B3800034B9A4200D008BD04F0C6F9FBE700BF9A
:100B48000010004072B6FEE700B585B000230093A0
:100B58000193029303931448144A02604FF48032BD
:100B6800426083600361836180F82030C362104A69
:100B78008262C3600122C26180F83030426104F0B1
:100B88001BFB68B9042300930123019300230293FC
:100B98006946054804F03CFB20B905B05DF804FB44
:100BA800FFF7D0FFFFF7CEFFB40900200022014075
:100BB8000100000F08B50848084B036000230371C3
:100BC8004371436183610123036204F013FC00B99C
:100BD80008BDFFF7B7FF00BF9009002000300240B2
:100BE80008B50A480A4B0360002343608360C3606A
:100BF800036143618361036243628362C362036387
:100C080004F070FC00B908BDFFF79CFF4009002004
:100C18000000055008B50C480C4B036000234360E6
:100C28008360C3608362C3620363436304F0AAFC06
:100C380028B90121044804F073FD10B908BDFFF775
:100C480081FFFFF77FFF00BF0009002000B00240CE
:100C580010B51448144B0360144B00221A708021FD
:100C68005970E1219970DA701A715A7143604FF422
:100C7800000383600E4BC3600E4B036140F2F453D4
:100C8800436104F071FF58B90B4C3822002120460B
:100C9800FFF70EFB212323604FF44003636110BD6F
:100CA800FFF750FF5008002000800240FC010020A0
:100CB8009000002030010020FC09002000B589B018
:100CC80000230193029303930493059306930793D8
:100CD8001448154A0260436083600421C1601022F1
:100CE8000261402242614FF4C0728261C3614FF4D5
:100CF800006202624FF480524262836202230193CF
:100D08000722029203910492032205920693079305
:100D1800694405F015F810B909B05DF804FBFFF750
:100D280011FF00BF04020020400100A008B51148CF
:100D3800114B0360114B4360002383600122C260A2
:100D4800036143618361C361036204F0E3F850B94E
:100D58000021084804F03CF938B90021054804F09E
:100D680065F920B908BDFFF7EDFEFFF7EBFEFFF7C9
:100D7800E9FE00BFFC070020005C0040FFEAC0005D
:100D880000B58FB03422002101A8FFF791FA274857
:100D9800274B0360002343608360C36003612822FC
:100DA8004261092282613522C2610B22026240F24D
:100DB8001522426240F21B12826240F23522C26260
:100DC80040F21D12026380F8343080F8353080F824
:100DD800363005F0ADF828BB002201924FF4F071CF
:100DE800029103924FF48873049302200590FF2028
:100DF800069007924FF4C0600890072009904FF0C2
:100E080040400A900B910C938DF834208DF83520D2
:100E18008DF8362001A9054805F074F920B90FB0FE
:100E28005DF804FBFFF78EFEFFF78CFE54070020E9
:100E38000068014008B50C480C4B0360012343606F
:100E4800042383601023C360182303614FF4A06355
:100E5800436100238361C361036205F0B3F900B9FC
:100E680008BDFFF76FFE00BF08070020001000A0B4
:100E780010B590B000240B940C940D940E940F941C
:100E88000A94282221466846FFF712FA3148324B65
:100E9800036044607F238360FF23C360046144616F
:100EA800846105F039FA002847D100238DF82C30E9
:100EB8008DF82D308DF82E300E930F9301220BA94B
:100EC800244805F085FA002839D101228DF8282018
:100ED8008DF829208DF82A2000238DF82B300AA9B7
:100EE8001C4805F0D5FA60BB00238DF800308DF85A
:100EF80001308DF802300193039304930593069310
:100F0800079301228DF820204FF4807309936946D6
:100F1800104805F00BFBB0B94FF400730993012298
:100F280069460C4805F002FB78B9022200210948FD
:100F380005F0B8FB58B910B010BDFFF703FEFFF776
:100F480001FEFFF7FFFDFFF7FDFDFFF7FBFDFFF7D4
:100F5800F9FD00BFE80600200028004008B5234836
:100F6800234B03600023036343604022426383638F
:100F7800C36383600361436183611E4AC261C360C6
:100F880043628362C362082202640122426483646A
:100F9800C364036543658365C265036605F0E0FBCA
:100FA80000BB1548154B036000230363032242600E
:100FB800402242638363C3630122826003618361C9
:100FC800C36043628362C36208210164426483642C
:100FD800C364036543658365C265036605F0C0FBAA
:100FE80010B908BDFFF7AEFDFFF7ACFD64060020A1
:100FF800045C014000EE0200E0050020245C014092
:1010080008B50A484FF0402303600023436083601B
:10101800C360036143618361C361036243628362A6
:1010280006F0E2FD00B908BDFFF78CFD10050020B1
:1010380010B59AB000241694179418941994139420
:10104800149415940C940D940E940F941094119478
:1010580012942C22214601A8FFF72AF92D482E4B7D
:101068000360446084604FF6FF73C36004614461A9
:10107800846107F0ADF800283FD14FF480531693F0
:1010880016A9244807F0E6F9002838D1214807F0C6
:10109800CFF8002835D1002313931493159313A97F
:1010A8001C4807F057FA00282DD160230C93002222
:1010B8000D920E920F921092119212920CA915484D
:1010C80007F01EF908BB00230193029303930493CE
:1010D80005934FF400520692079308934FF000725D
:1010E80009920A930B9301A90A4807F083FA70B989
:1010F800084800F0F5FE1AB010BDFFF723FDFFF712
:1011080021FDFFF71FFDFFF71DFDFFF71BFDFFF793
:1011180019FD00BFC40400200000014000B58FB0D5
:1011280000230A930B930C930D9307930893099349
:1011380000930193029303930493059306931E4827
:101148004FF080420260436083604FF0FF32C2601C
:101158000361836107F03CF820BB4FF480530A9386
:101168000AA9154807F076F9F0B9134807F060F8AE
:10117800E0B900230793099307A90F4807F0EAF994
:10118800B0B960230093002201920292049269464A
:10119800094807F0B5F868B9074800F0A1FE0FB094
:1011A8005DF804FBFFF7CEFCFFF7CCFCFFF7CAFCA9
:1011B800FFF7C8FCFFF7C6FC7804002000B58FB025
:1011C80000230A930B930C930D93079308930993A9
:1011D80000930193029303930493059306931E4887
:1011E8001E4A0260436083604FF6FF72C26003616B
:1011F800836106F0EDFF20BB4FF480530A930AA9E0
:10120800154807F027F9F0B9134807F011F8E0B9C5
:1012180000230793099307A90F4807F09BF9B0B972
:1012280060230093002201920292049269460A48C0
:1012380007F066F868B9084800F052FE0FB05DF88C
:1012480004FBFFF77FFCFFF77DFCFFF77BFCFFF754
:1012580079FCFFF777FC00BF2C0400200004004055
:1012680000B58FB000230A930B930C930D9307934B
:1012780008930993009301930293039304930593AE
:1012880006931E481E4A0260436083604FF0FF3297
:10129800C2600361836106F09BFF28BB4FF4805353
:1012A8000A930AA9154807F0D5F8F8B9134806F0C3
:1012B800BFFFE8B900230793099307A90F4807F070
:1012C80049F9B8B96023009300230193029304936A
:1012D8000C226946094807F013F868B9074800F076
:1012E800FFFD0FB05DF804FBFFF72CFCFFF72AFCAD
:1012F800FFF728FCFFF726FCFFF724FCE00300209B
:10130800000C004000B589B00023049305930693B0
:1013180007930193029303931348144A02604360AE
:1013280083604FF6FF72C26003614361836106F018
:101338004FFF98B94FF48053049304A90A4807F063
:1013480089F868B9002301930293039301A9064819
:1013580007F000F930B909B05DF804FBFFF7F2FBBC
:10136800FFF7F0FBFFF7EEFB9403002000040140B9
:1013780000B589B000230193029303930493059366
:10138800069307931048114A0260436083604FF642
:10139800FF72C2600361836106F04AFF80B960236F
:1013A8000193002202920392059201A9064806F0D1
:1013B800A7FF38B9044800F093FD09B05DF804FBB5
:1013C800FFF7C0FBFFF7BEFB4803002000180040F2
:1013D80008B50B480B4B03604FF4E133436000231F
:1013E8008360C36003610C2242618361C36103624D
:1013F800436207F0D8FB00B908BDFFF7A3FB00BFA5
:10140800C00200200010014008B50B480B4B0360D8
:101418004FF4E133436000238360C36003610C220F
:1014280042618361C3610362436207F0BCFB00B998
:1014380008BDFFF787FB00BF3802002000140140F9
:1014480000B595B03022002108A8FEF731FF00232F
:101458000393049305930693079303F081FC244BAD
:101468001A6C42F080521A641B6C03F0805301938B
:10147800019B204B1A6842F440421A601B6803F42F
:1014880040430293029B092308934FF48032099248
:1014980001220D9202220E924FF480010F91192120
:1014A80010914FF4C87111911292139308A802F089
:1014B80035FCB0B903F05CFCA8B90F2303930223F1
:1014C8000493002305934FF4A05306934FF48053DD
:1014D8000793062103A802F08FFE30B915B05DF816
:1014E80004FBFFF72FFBFFF72DFBFFF72BFB00BFDC
:1014F800003802400070004000B5A3B084220021EB
:1015080001A8FEF7D5FE0E4B01934FF4C073069366
:1015180005230893022307930323099301230B93BD
:101528004FF400330C934FF00063209301A802F0AE
:101538005DFF10B923B05DF804FBFFF703FB00BFA4
:101548000800B00008B503F0B3FCFFF779FFFFF718
:10155800D3FFFFF769F9FFF7F7FAFFF72BFBFFF760
:101568003FFBFFF757FBFFF773FBFFF7A7FBFFF7FF
:10157800DDFBFFF705FCFFF75DFCFFF779FCFFF7E4
:10158800EDFCFFF73FF9FFF73BFDFFF751FDFFF7D4
:10159800C5FDFFF713FEFFF763FEFFF7B3FEFFF786
:1015A800E7FEFFF715FFFFF72FFF00F04DFF00F0F4
:1015B8006FFF00F08DFFFCE7FEE7FEE7FEE7FEE7C2
:1015C800FEE77047704770477047000008B502484B
:1015D80006F0A8FC08BD00BF3C0A002008B5024878
:1015E80001F06EFE08BD00BF680E002008B5024875
:1015F80004F01BFD08BD00BF5407002008B50248D1
:1016080003F0F0FF08BD00BF00090020F0B587B067
:101618000023019302930393049305932A4B1B68B9
:101628000BB107B0F0BD284B01221A60274B9A6B0B
:1016380042F001029A639B6B03F001030093009B45
:101648004FF68373019302260296032504950C2412
:10165800059401A91E4803F073FA48F23313019365
:101668000296002703970495059401A9194803F0E9
:1016780067FA4CF203730193029603970495059455
:1016880001A9154803F05CFA4FF63F03019302964F
:1016980003970495059401A9104803F051FA2823EB
:1016A8000193029603970495059401A90C4803F049
:1016B80047FA08230193029603970495059401A914
:1016C800084803F03DFAACE7380A00200038024029
:1016D8000010024000180240000C024000140240B2
:1016E800001C02400008024082B00A4B1A6C42F00B
:1016F80080521A641A6C02F080520092009A5A6C56
:1017080042F480425A645B6C03F480430193019B6A
:1017180002B070470038024010B588B00023039328
:10172800049305930693079302681A4B9A4201D0D3
:1017380008B010BD03F58B335A6C42F480625A64CA
:101748005A6C02F480620092009A1A6B42F02002EE
:101758001A631A6B02F020020192019A1A6B42F086
:1017680001021A631B6B03F001030293029B4FF4FF
:10177800F86303930324049403A9074803F0E0F9EA
:101788000123039304940023059303A9034803F05A
:10179800D7F9CDE7002201400014024000000240C2
:1017A8000268094B9A4200D0704782B003F5006383
:1017B8001A6B42F480521A631B6B03F48053019333
:1017C800019B02B0704700BF0030024070B58CB07A
:1017D80000230793089309930A930B930268394BE4
:1017E8009A4201D00CB070BD374B5A6B42F00102DF
:1017F8005A635A6B02F001020192019A1A6B42F085
:1018080010021A631A6B02F010020292029A1A6B03
:1018180042F008021A631A6B02F008020392039A54
:101828001A6B42F040021A631A6B02F040020492EB
:10183800049A1A6B42F080021A631A6B02F0800253
:101848000592059A1A6B42F001021A631B6B03F0AA
:1018580001030693069B60230793022608960D252D
:101868000B9507A9194803F06BF908230793089605
:10187800002409940A940B9507A9154803F060F908
:101888004FF400730793089609940A940B9507A9D7
:10189800104803F055F94FF4BC4307930896099490
:1018A8000A940B9507A90C4803F04AF950230793AB
:1018B800089609940A940B9507A9084803F040F97B
:1018C80090E700BF000005500038024000100240B9
:1018D800000C024000180240001C024000000240B8
:1018E80002680E4B9A4200D0704700B583B0A3F54A
:1018F800F0431A6B42F400021A631B6B03F40003F3
:101908000193019B002211465A2003F0B3FA5A2092
:1019180003F0C0FA03B05DF804FB00BF00B002405A
:10192800F0B58DB000230793089309930A930B939E
:101938000268304B9A4201D00DB0F0BDA3F5904338
:101948001A6B42F000721A631A6B02F0007201926D
:10195800019A1A6B42F080621A631A6B02F0806275
:101968000292029A1A6B42F000621A631A6B02F032
:1019780000620392039A1A6B42F040021A631A6BD0
:1019880002F040020492049A1A6B42F004021A63AD
:101998001A6B02F004020592059A1A6B42F00102D2
:1019A8001A631B6B03F001030693069B4FF4D043A5
:1019B80007930226089603250A950B240B9407A97A
:1019C8000D4803F0BDF832230793089600270997BE
:1019D8000A950B9407A9094803F0B2F886230793E0
:1019E800089609970A950B9407A9054803F0A8F8E3
:1019F800A2E700BF00800240001802400008024031
:101A08000000024010B5A8B004460021239124919B
:101A1800259126912791842202A8FEF749FC226885
:101A2800184B9A4201D028B010BD4FF4803302936E
:101A380002A802F0DBFC10BB134C236B43F08003BD
:101A48002363236B03F080030093009B4FF4C07360
:101A580023931223249301232593032326930423FA
:101A6800279323A9094803F06BF8236C43F4000378
:101A78002364236C03F400030193019BD3E7FFF76E
:101A880061F8D9E7005C004000380240001C0240C1
:101A980070B58CB000230793089309930A930B93AE
:101AA80002683E4B9A4201D00CB070BD03F550431A
:101AB8005A6C42F080625A645A6C02F08062019259
:101AC800019A1A6B42F010021A631A6B02F01002A4
:101AD8000292029A1A6B42F400721A631A6B02F4A9
:101AE80000720392039A1A6B42F480621A631A6BAB
:101AF80002F480620492049A1A6B42F040021A635C
:101B08001A6B02F040020592059A1A6B42F4807231
:101B18001A631B6B03F480730693069B10230793C9
:101B2800022508950E260B9607A91D4803F008F80C
:101B38004EF6FF7307930895002409940A940B96B0
:101B480007A9184802F0FCFFF723079308950994A2
:101B58000A940B9607A9144802F0F2FF4FF4805339
:101B68000793089509940A9409230B9307A90F482A
:101B780002F0E6FF4FF446430793089509940A9448
:101B88000B9607A90A4802F0DBFF22462146582097
:101B980003F070F9582003F07DF985E700680140EB
:101BA80000100240002402400028024000180240B1
:101BB800002002402DE9F0438BB0002305930693E3
:101BC80007930893099302682E4B9A4202D00BB0F0
:101BD800BDE8F0832C4B9A6B42F002029A639A6B31
:101BE80002F002020192019A1A6B42F010021A6383
:101BF8001A6B02F010020292029A1A6B42F0020269
:101C08001A631A6B02F002020392039A1A6B42F0EB
:101C180008021A631B6B03F008030493049B4FF03C
:101C28000409CDF814900225069503240894092682
:101C3800099605A9154802F083FF402305930695E8
:101C48000027079708940A230993DFF8488005A915
:101C5800404602F075FFCDF8149006950797089452
:101C6800099605A9404602F06BFF4FF460530593AF
:101C7800069507970894099605A9054802F060FF9C
:101C8800A5E700BF001000A0003802400010024085
:101C9800000C02400004024010B5A2B004468422A1
:101CA800002101A8FEF704FB22680B4B9A4201D0E1
:101CB80022B010BD202301934FF400730D9301A8A7
:101CC80002F094FB28B9054A136F43F400431367E5
:101CD800EEE7FEF737FFF6E700280040003802403D
:101CE80070B588B000230393049305930693079374
:101CF80002681E4B9A4201D008B070BD03F58633C6
:101D08005A6C42F400625A645A6C02F400620092FF
:101D1800009A1A6B42F004021A631A6B02F004026A
:101D28000192019A1A6B42F008021A631B6B03F0C6
:101D380008030293029B4FF4F85303930226049678
:101D4800032506950C2407940DEB0401084802F0BE
:101D5800F7FE04230393049600230593069507943E
:101D68000DEB0401034802F0EBFEC5E7002C01402F
:101D780000080240000C024010B5A8B0044600213B
:101D880023912491259126912791842202A8FEF778
:101D98008FFA2368B3F1402F01D028B010BD4FF05F
:101DA8008073029364230393022306930493059399
:101DB80001230B9302A802F019FB00BB114B1A6C0C
:101DC80042F480321A641A6C02F480320092009A4B
:101DD8001A6B42F008021A631B6B03F008030193A5
:101DE800019B802323930223249300232593269386
:101DF8000823279323A9044802F0A2FECDE7FEF7A3
:101E0800A1FEDBE700380240000C024086B0036800
:101E1800234A934216D0B3F1804F1FD0214A9342F0
:101E280028D0214A934230D0204A934214D1204BE3
:101E38005A6C42F002025A645B6C03F00203059389
:101E4800059B09E01A4B5A6C42F001025A645B6C1C
:101E580003F001030193019B06B0704703F50E33AD
:101E68001A6C42F001021A641B6C03F0010302931E
:101E7800029BF1E70E4B1A6C42F002021A641B6CCB
:101E880003F002030393039BE6E7094B1A6C42F045
:101E980008021A641B6C03F008030493049BDBE735
:101EA8000000014000040040000C00400004014014
:101EB800003802400268094B9A4200D0704782B04D
:101EC80003F508331A6C42F040021A641B6C03F0E5
:101ED80040030193019B02B0704700BF0018004007
:101EE80000B58BB0002305930693079308930993D5
:101EF80003683E4A93420ED0B3F1804F21D03C4A4A
:101F0800934235D03B4A934246D03B4A934257D0FE
:101F18000BB05DF804FB394B1A6B42F001021A63EF
:101F28001B6B03F001030093009B4FF48073059330
:101F3800022306930123099305A9314802F000FE04
:101F4800E6E703F50E331A6B42F001021A631B6BC6
:101F580003F001030193019B4FF40043059302230F
:101F680006930123099305A9254802F0E9FDCFE767
:101F7800224B1A6B42F002021A631B6B03F0020336
:101F88000293029B1023059302230693099305A944
:101F98001C4802F0D5FDBBE7184B1A6B42F480725F
:101FA8001A631B6B03F480730393039B012305934C
:101FB80002230693099305A9134802F0C1FDA7E778
:101FC8000E4B1A6B42F080021A631B6B03F08003FE
:101FD8000493049B40230593022306930923099342
:101FE80005A90A4802F0ACFD92E700BF00000140D5
:101FF80000040040000C0040001800400038024077
:10200800000002400004024000200240001C024080
:1020180070B5ACB0044600212791289129912A91E6
:102028002B91842206A8FEF743F92368394A934284
:1020380004D0394A934240D02CB070BD4023069357
:1020480006A802F0D3F9002834D1344B5A6C42F078
:1020580010025A645A6C02F010020192019A1A6B2B
:1020680042F002021A631A6B02F002020292029A0A
:102078001A6B42F001021A631B6B03F0010303930E
:10208800039B8023279302262896002429942A94C8
:1020980007252B9527A9224802F052FD4FF400731B
:1020A8002793289629942A942B9527A91D4802F04E
:1020B80047FDC1E7FEF746FDC7E74FF40063069307
:1020C80006A802F093F908BB144B5A6C42F02002A0
:1020D8005A645A6C02F020020492049A1A6B42F075
:1020E80004021A631B6B03F004030593059BC023CA
:1020F8002793022328930023299303232A93082351
:102108002B9327A9084802F01BFD95E7FEF71AFD57
:10211800DAE700BF00100140001401400038024017
:1021280000040240000002400008024008B5FFF722
:102138006DFA08BD10B588B004460268224B9A4271
:1021480005D02268214B9A421FD008B010BD204B01
:102158001B684BB91F4A516C41F400015164526C21
:1021680002F400020192019A0133194A1360F02324
:102178000393022304930023059306930A230793EA
:1021880003A9154802F0DCFCDBE7114B1B684BB9CF
:10219800104A516C41F400015164526C02F400027F
:1021A8000292029A01330A4A13604FF48063039340
:1021B800022304930023059306930A23079303A994
:1021C800064802F0BDFCC0E7045C0140245C014005
:1021D800340A002000380240002002400018024063
:1021E80030B589B00446214B1A6C42F010021A64CB
:1021F8001B6C03F010030193019B02A903A802F0D2
:10220800D7F8069BCBB902F0B3F80346184AA2FBED
:1022180003239B0C013B1748174A026040F2E73240
:10222800C2604360002303618360836105F0D0FFCF
:10223800054630B1284609B030BD02F099F8430090
:10224800E4E70C4805F022FE05460028F2D13620C6
:1022580002F020FE0F2C01D90125EBE700222146D0
:10226800362002F007FE054B1C60E3E70038024009
:1022780083DE1B433C0A0020001000406800002059
:1022880000B583B0009313460A460146034805F09B
:1022980037F800B1012003B05DF804FB5C050020AD
:1022A80000B583B0009313460A460146034805F07B
:1022B8004BF900B1012003B05DF804FB5C05002078
:1022C80008B5034805F07EFC043818BF012008BD96
:1022D8005C05002008B50146014805F000FC08BD72
:1022E8005C05002000B583B001238DF8073000F0AD
:1022F8009DF810B900238DF807309DF8070003B04A
:102308005DF804FB38B5FFF7EDFF012802D0022580
:10231800284638BD0446074805F0C6FB0546002890
:10232800F6D14FF40061034805F0ECFB0028EFD02C
:102338002546EDE75C05002008B5074B01221A7019
:10234800FFF7BEFF20B9044A137803F0FE031370A9
:10235800014B187808BD00BF6400002010B5044682
:10236800074B01221A70FFF7CDFF10B1044B187804
:1023780010BD2046FFF7E0FF014B1870F6E700BFDD
:102388006400002008B5FFF7D7FF08BD08B5084668
:1023980011461A464FF0FF33FFF772FF30B9FFF7C7
:1023A8008FFF03460028FAD1184608BD0123FBE732
:1023B80008B5084611461A464FF0FF33FFF770FF7D
:1023C80030B9FFF77DFF03460028FAD1184608BD4B
:1023D8000123FBE730B589B0134B187810F00104DE
:1023E8001BD1154603291CD8DFE801F002040A10A6
:1023F8000C4613E06846FFF76DFF069B2B600DE067
:102408006846FFF767FF079B2B8007E06846FFF7E2
:1024180061FF079B5B0A2B6000E00324204609B09C
:1024280030BD0424FAE700BF6400002008B54FF46B
:102438000051044802F086FC08B9012008BD0020BC
:10244800FCE700BF0008024008B50349034806F04E
:102458000FFC034B187008BD880A0020609F000815
:102468008C0A002004290CD0052902D0022904D0A6
:102478007047064B03221A707047044B02221A70E9
:102488007047024B01221A70F2E700BF8D0A002044
:1024980008B501220B490C4806F07DFD48B90B49E7
:1024A800094806F097FD38B9074806F0D8FD30B955
:1024B80008BDFEF747FBF2E7FEF744FBF4E7FEF73B
:1024C80041FBF5E76D240008900A00207000002009
:1024D80008B5024806F0CDFD08BD00BF900A0020EF
:1024E80010B588B0002303930493059306930793CC
:1024F8000368B3F1A04F01D008B010BD184C236B8E
:1025080043F001032363236B03F001030093009B53
:102518004FF4C053039302230493032306930A231F
:10252800079303A90F4802F00BFB636B43F080038A
:102538006363636B03F080030193019B636C43F453
:1025480080436364636C03F480430293029B00221C
:102558001146432002F08EFC432002F09BFCCBE79F
:10256800003802400000024008B5D0F8000306F029
:10257800CAFE08BD08B5D0F8000306F0D5FE08BDB0
:1025880008B5D0F8000306F0D9FE08BD704708B5B5
:10259800D0F8000306F0C0FE08BD08B5D0F8000367
:1025A80006F0BEFE08BD000090F8CC33012B01D028
:1025B8000020704710B504460F48C0F80043C4F81F
:1025C800D0034FF0A0430360082383600123C36056
:1025D8000023036102228261C36100F059F940B906
:1025E800054800F04EFF0146204606F089FE00200F
:1025F80010BDFEF7A7FAF3E7680E002008B5D0F87B
:10260800D00300F043FF012804D0022804D000B111
:10261800012008BD0120FCE70220FAE708B5D0F840
:10262800D00300F029FF08BD08B5D0F8D00300F0AA
:102638001DFF08BD08B590F8CC33012B04D0C82085
:1026480002F054FC002008BD084600F06DF8F6E7DB
:10265800D0F8D0332C2000FB013090F83B0030B18B
:102668002C2000FB013181F85420002070472C20D9
:1026780000FB013181F85520F7E708B502F036FC78
:1026880008BD022805D8DFE800F005040200012093
:1026980070470220704708B5D0F8D00300F0BAFEA2
:1026A800FFF7EFFF08BD08B5D0F8D00300F0C7FE6C
:1026B800FFF7E7FF08BD08B5D0F8D00300F0D1FE5A
:1026C800FFF7DFFF08BD10B584B0D0F8D003BDF820
:1026D800204002949DF81C4001949DF818400094F5
:1026E80000F07DF8FFF7CDFF04B010BD08B5D0F8B5
:1026F800D00300F0BBF8FFF7C4FF08BD10B584B0E5
:10270800D0F8D0039DF824400394BDF820400294EB
:10271800079C01949DF81840009400F00BF9FFF70E
:10272800B0FF04B010BD000008B5024600B1012298
:102738002021024802F00DFB08BD00BF000C02403A
:10274800F8B50668346A04F00F07C4F34343C4F3CA
:102758000A14022B00D0F8BD0546002CFBD02C2310
:1027680003FB0703596C0029F5D02C2303FB07034F
:102778001A6D2244DB6C9A4206D92C2303FB070509
:10278800042385F86030E6E72246304600F05BFF18
:102798002C2303FB07535A6C22445A641A6D2244B3
:1027A8001A6506EB4716D6F81025C2F3C942B3F8E6
:1027B8004030A342CFD1002ACDD0D6F8003523F03F
:1027C800804343F00043C6F800352C2303FB07532E
:1027D80093F8542082F0010283F85420BBE7F0B547
:1027E80085B004469DF828509DF82C60BDF83070DF
:1027F80090F8F802012837D0012084F8F8022C203C
:1028080000FB01404FF0000C80F83DC080F83830E4
:10281800A0F8407080F8391080F83F6002F07F0C13
:1028280080F83AC012F0800F16D12C2000FB01402E
:102838004FF0000C80F83BC02C2000FB014080F8D2
:102848003C50029701960095206801F046F8002355
:1028580084F8F83205B0F0BD2C2000FB01404FF0A1
:10286800010C80F83BC0E7E70220F3E790F8F83264
:10287800012B0BD010B50446012380F8F83200680C
:1028880001F0C6F8002084F8F80210BD0220704755
:1028980000284DD070B58AB00446056890F8F93222
:1028A800002B40D0032384F8F932EB6B13F4807FBC
:1028B80001D100232361206800F05AFEA4465CF889
:1028C800106BEE46BCE80F00AEE80F00BCE80F0046
:1028D800AEE80F009CE803008EE80300251D95E88C
:1028E8000E00304600F000FE0121206800F0DFFEF7
:1028F800A4465CF8106BEE46BCE80F00AEE80F008B
:10290800BCE80F00AEE80F009CE803008EE8030067
:1029180095E80E00304600F0FBFE012384F8F932FA
:1029280000200AB070BD80F8F832FFF7D9FDB9E78A
:102938000120704770B59DF81050BDF818604FF031
:102948002C0C0CFB010C8CF83B208CF83F307DB92B
:1029580064464FF0030C84F842C09DF81CC084F80C
:102968003DC0032B00F28180DFE803F00A7929518A
:102978002C2404FB01044FF0020C84F842C0F0E759
:10298800012D08BF002A70D12EB92C2303FB0103A7
:10299800012283F855202C2303FB010393F85530BB
:1029A80033B92C2303FB0103002283F842205CE0A7
:1029B8002C2303FB0103022283F8422055E092B93D
:1029C8002C2303FB010393F855302BB92C2303FB6D
:1029D800010383F8422048E02C2303FB0103022271
:1029E80083F8422041E02C2303FB010393F8543081
:1029F80033B92C2303FB0103002283F8422034E07F
:102A08002C2303FB0103022283F842202DE092B914
:102A18002C2303FB010393F855302BB92C2303FB1C
:102A2800010383F8422020E02C2303FB0103022248
:102A380083F8422019E02C2303FB010393F8543058
:102A480033B92C2303FB0103002283F842200CE056
:102A58002C2303FB0103022283F8422005E02C23E8
:102A680003FB0103002283F842202C2301FB03F31C
:102A7800C218059C5464D664002482F8604014652A
:102A880082F8391082F8614003F13801027C014470
:102A9800006801F043F870BD30B583B0044605689E
:102AA800D5F840340193D5F840340093009B23F0C7
:102AB8002E030093019B13F0020F07D0019B13F024
:102AC800010F25D1009B43F002030093019B13F0F3
:102AD800080F10D0009B43F008030093019B13F0EC
:102AE800040F2DD0A369022B15D0E368012B22D047
:102AF8002046FFF74CFD019B13F0200F03D0009BED
:102B080043F020030093009BC5F8403403B030BD68
:102B1800FFF730FDD6E7019B03F4C023B3F5802F00
:102B280004D00121206800F067FEE1E70221206857
:102B380000F062FEDCE74EF66022C5F80424D7E711
:102B48002046FFF72AFDD6E7F8B505460C46066885
:102B5800304600F09FFD10F0040F20D006EB441320
:102B68000422C3F808252C2303FB0453072283F807
:102B780061202146286800F04BFF2146286800F0B4
:102B880089FD10F4007F68D02146286800F040FFD6
:102B980006EB44164FF40073C6F80835F8BD214615
:102BA800286800F077FD10F4807F10D006EB4413FE
:102BB8004FF48072C3F808252C2303FB0453082222
:102BC80083F861202146286800F022FFD5E72146D6
:102BD800286800F05FFD10F0080F0FD006EB4413D3
:102BE8000822C3F808252C2303FB0453062283F884
:102BF80061202146286800F00BFFBEE721462868BF
:102C080000F048FD10F4806F10D006EB44134FF429
:102C18008062C3F808252C2303FB0453092283F898
:102C280061202146286800F0F3FEA6E721462868BF
:102C380000F030FD10F0800F9FD006EB4413802287
:102C4800C3F808252C2303FB0453072283F86120CB
:102C58002146286800F0DCFE8FE72146286800F04E
:102C680019FD10F0010F5ED006EB441606F5A067BB
:102C78002023BB602B6943B12C2303FB04539A6CBC
:102C88003969C1F31201521A1A652C2303FB045344
:102C9800012283F861200021D965BA6093F83F309A
:102CA800022B18BF8B4210D0012B18BF032B13D057
:102CB8002B69012B21D02C2303FB045393F85420B8
:102CC80082F0010283F8542068E72146286800F062
:102CD8009FFE1023BB60EBE7D6F8003543F00053A6
:102CE800C6F800352C2303FB0453012283F8602027
:102CF80021462846FFF74AFCDAE72C2303FB045356
:102D08009A6CB3F84030B2FBF3F313F0010F3FF4C1
:102D180045AF2C2303FB045393F8542082F001029F
:102D280083F854203AE72146286800F0B3FC10F0F5
:102D3800200F05D006EB44162023C6F808352DE7EA
:102D48002146286800F0A6FC10F0020F00F09380DE
:102D580006EB44160222C6F808252C2303FB04536D
:102D680093F86130012B15D0023B072B1AD801A22A
:102D780052F823F0A52B0008292E0008372E00084A
:102D88001B2E0008C12D0008D52D0008652E00084F
:102D9800D52D00082C2303FB045383F8612001225E
:102DA80083F860202C2303FB045393F8602021460A
:102DB8002846FFF7EBFBF1E62C2303FB0453022222
:102DC80083F86120052283F86020EBE72C2303FBBE
:102DD8000453022283F86120DA6D0132DA65022A8F
:102DE80008D92C2303FB04530022DA65042283F854
:102DF8006020D7E72C2303FB0453022283F86020CA
:102E0800D6F8003523F0804343F00043C6F8003578
:102E1800C8E72C2303FB0453022283F86120C1E78F
:102E28002C2303FB0453022283F86120BAE72C23E6
:102E380003FB0453022283F8612083F8602093F88F
:102E48003F30934218BF002BACD1D6F8003523F0A1
:102E5800804343F00043C6F80035A3E72C2303FB67
:102E68000453022283F86120DA6D0132DA65042204
:102E780083F8602096E72146286800F00BFC10F0E4
:102E8800400F11D006EB44134022C3F808252C2329
:102E980003FB0453052283F861200022DA652146EA
:102EA800286800F0B5FD79E62146286800F0F2FBB5
:102EB80010F0100F3FF472AE2C2303FB045393F869
:102EC8003F30032B10D0022B18BF002B06D12C2328
:102ED80003FB04530022DA652B6993B106EB441314
:102EE8001022C3F8082559E62C2303FB04530022BB
:102EF800DA65042283F861202146286800F088FDFD
:102F0800ECE72C2303FB0453042283F861202146B9
:102F1800286800F07DFDE1E770B506460D460468B7
:102F2800204600F0B7FB10F0040F0FD004EB451457
:102F38000423C4F808352C2303FB0563072283F810
:102F480061202946306800F063FD70BD294630686D
:102F580000F0A0FB10F0200F1CD004EB4514202338
:102F6800C4F808352C2303FB056393F83D30012B87
:102F7800EBD12C2303FB0563002283F83D200222BA
:102F880083F86020032283F861202946306800F026
:102F98003FFDDAE72946306800F07CFB10F4007F3B
:102FA8000AD004EB45144FF40073C4F808352946D9
:102FB800306800F02DFDC8E72946306800F06AFB4C
:102FC80010F0010F25D02C2303FB05630022DA65DE
:102FD8002946306800F05EFB10F0400F0AD02C2321
:102FE80003FB0563012283F83D2004EB45134022CF
:102FF800C3F8082504EB45140122C4F808252C233E
:1030080003FB056383F861202946306800F000FD62
:103018009BE72946306800F03DFB10F0400F14D0C4
:103028002C2303FB0563052283F86120012283F822
:103038003D200022DA652946306800F0E9FC04EBFF
:1030480045144023C4F808357FE72946306800F066
:1030580021FB10F0080F0FD004EB45130822C3F82A
:1030680008252C2303FB0563062283F861202946E3
:10307800306800F0CDFC68E72946306800F00AFBAC
:1030880010F0100F20D02C2303FB05630022DA6513
:10309800042283F8612093F83D305BB92C2303FBAD
:1030A800056393F83C302BB92C2303FB05630122FD
:1030B80083F83D202946306800F0AAFC04EB45134C
:1030C8001022C3F8082540E72946306800F0E2FAE4
:1030D80010F0800F2BD033699BB12C2202FB0562C4
:1030E800D36D0133D365022B16D82C2303FB05635C
:1030F800022283F8602004EB45138022C3F80825D8
:1031080023E72C2303FB0563072283F86120294664
:10311800306800F07DFCEEE713460022DA650422F1
:1031280083F8602029463046FFF730FAE3E729465E
:10313800306800F0AFFA10F4806F10D02C2303FB36
:103148000563092283F861202946306800F060FC95
:1031580004EB45134FF48062C3F80825F5E62946C9
:10316800306800F097FA10F0020F3FF4EEAE04EB6F
:1031780045140222C4F808252C2303FB056393F8A1
:103188006130012B14D0033B062B3FF6DEAE01A2C3
:1031980052F823F03B320008493200085B3200083D
:1031A8006D32000881320008532F00088132000870
:1031B8002C2303FB056383F86120012283F8602038
:1031C80093F83F30023BDBB2934209D92C2303FB2F
:1031D800056393F8602029463046FFF7D7F9B4E62F
:1031E800316941B92C2303FB056393F8552082F01C
:1031F800010283F855200129E8D12C2303FB05633C
:10320800DB6C002BE2D02C2202FB0562B2F84020D6
:103218001344013BB3FBF2F313F0010FD6D02C2378
:1032280003FB056393F8552082F0010283F85520CB
:10323800CCE72C2303FB0563022283F86120C5E752
:103248002C2303FB0563022283F8612083F86020A6
:10325800BCE72C2303FB0563022283F8612083F873
:103268006020B3E72C2303FB0563022283F8612067
:10327800052283F86020A9E72C2303FB05630222BB
:1032880083F86120DA6D0132DA65022A08D92C2325
:1032980003FB05630022DA65042283F8602095E7C2
:1032A8002C2303FB0563022283F86020D4F8003541
:1032B80023F0804343F00043C4F8003586E700BF9D
:1032C800F8B504460568284600F0EDF9012800D055
:1032D800F8BD206800F0DAF90028F9D0206800F07D
:1032E800D5F910F4001F03D023684FF400125A6177
:1032F800206800F0CBF910F4801F03D023684FF446
:1033080080125A61206800F0C1F910F0806F03D074
:1033180023684FF080625A61206800F0B7F910F016
:10332800020F02D0236802225A61206800F0AEF929
:1033380010F0005F08D023684FF000525A61D5F8AA
:10334800403413F0010F1DD0206800F09FF910F0F1
:10335800807F26D1206800F099F910F0080F24D159
:10336800206800F093F910F0100F25D1206800F0C4
:103378008DF910F0007FABD0206800F044FB0746C1
:1033880000262CE01021284600F0F8F8284600F026
:103398001DF90121206800F02FFA2046FFF7F0F808
:1033A800D2E72046FFF778FBD4E72046FFF7DCF8A2
:1033B800236808225A61D3E72268936923F010032F
:1033C80093612046FFF7BCF92268936943F0100324
:1033D8009361CBE7F1B22046FFF79EFD0136A36863
:1033E800B34212D906F00F0327FA03F313F0010FC3
:1033F800F4D005EB4613D3F8003513F4004FE9D0A9
:10340800F1B22046FFF7A0FBE8E723684FF000720F
:103418005A615DE790F8F832012B0ED010B50446DA
:10342800012180F8F812006800F024FA206800F002
:1034380099F8002084F8F80210BD0220704790F82F
:10344800F832012B0BD010B50446012380F8F8326E
:10345800006800F019FC002084F8F80210BD022072
:10346800704708B5006800F0E6F908BD2C2303FB97
:10347800010090F8600070472C2303FB0100006DE9
:10348800704708B5006800F023FA08BD08B5006861
:1034980000F013FA08BD000082B000230193019BDD
:1034A80001330193019A0F4B9A4215D80369002BF7
:1034B800F5DA00230193036943F001030361019BDB
:1034C80001330193019A074B9A4208D8036913F014
:1034D800010FF4D1002000E0032002B07047032060
:1034E800FBE700BF400D030084B010B5044603A8F5
:1034F80080E80E00089B012B1DD1A36B23F48033B9
:10350800A363E268164B1340E360E36823F44013B7
:10351800E3600F9B012B09D02046FFF7BDFF069BF8
:10352800012B14D0BDE8104004B07047E36843F4A1
:103538008013E360F0E7E36843F04003E36020466C
:10354800FFF7AAFFA36B43F48033A363E7E7A368FD
:1035580043F00603A360A36843F02003A360E1E7F8
:10356800BFFFBDFF836843F00103836000207047FD
:10357800836823F0010383600020704782B0002332
:103588000193019B01330193019A0F4B9A4215D87D
:103598000369002BF5DA00230193890141F020012A
:1035A8000161019B01330193019A074B9A4208D8A4
:1035B800036913F0200FF4D1002000E0032002B0CB
:1035C80070470320FBE700BF400D030082B00023D3
:1035D8000193019B01330193019A0E4B9A4213D830
:1035E8000369002BF5DA0023019310230361019B83
:1035F80001330193019A074B9A4208D8036913F0E3
:10360800100FF4D1002000E0032002B0704703201F
:10361800FBE700BF400D030010B59DF8084084B9D2
:1036280003334FEA930E4FF0000C08E000EB02332F
:1036380003F5805351F8044B1C600CF1010CF44560
:10364800F4D3002010BD10B5844608464FEA920E08
:1036580002F00302002305E00CF58051096840F8E8
:10366800041B01337345F7D37AB10CF5805CDCF8A1
:1036780000400021CBB2DB0024FA03F300F8013B41
:103688000131013A92B2002AF4D110BD4269806931
:103698001040704700EB411000F5A063D0F8080512
:1036A800DB6818407047406900F00100704738B582
:1036B8000546C36823F0C043C360012913D019BB72
:1036C800C36843F08043C3600024012001F00EFC6E
:1036D80001342846FFF7E7FF08B1312CF5D9322C21
:1036E80014D0002038BDC36843F00053C3600024E1
:1036F800012001F0FBFB01342846FFF7D4FF012825
:10370800EDD0312CF4D9EAE70120EBE70120E9E715
:1037180084B038B5044605A880E80E000023C4F834
:10372800003EA36B23F40013A363E36B13F4807FC1
:1037380010D0079B012B06D0D4F8003423F00403E3
:10374800C4F800340CE0D4F8003443F00403C4F89F
:10375800003405E0D4F8003423F00403C4F800343E
:1037680010212046FFF70AFF054600B10125204633
:10377800FFF72CFF00B10125002209E004EB4213FA
:103788004FF0FF31C3F808150021C3F80C150132BA
:10379800069B9342F2D80023A3614FF0FF33636185
:1037A800E36B13F4807F17D04FF40073636203F167
:1037B8008073A3620D4BC4F80031089B1BB9A36941
:1037C80043F01003A361A269094B1343A361284680
:1037D800BDE8384004B070478023636203F5C00336
:1037E800A362044BC4F80031E7E700BF0003E00020
:1037F800080020A3E000400000F5806CD0F80034F9
:1038080023F00303C0F80034D0F8003401F00302B9
:103818001343C0F80034012903D0022906D0002040
:1038280070474BF68033CCF80430F8E741F27073F8
:10383800CCF80430F3E730B583B004460025019591
:10384800D0F840340193019B23F02E030193019B90
:1038580043F48073C0F84034642001F047FB019BB7
:1038680023F48073C4F840340A2001F03FFB284653
:1038780003B030BD82B000230193D0F840340193E7
:10388800019B23F02E030193019B13F4805F01D168
:1038980001290CD0019B13F4805F05D021B9019B4D
:1038A80023F48053C0F84034002002B07047019BD5
:1038B80043F48053C0F84034ECE782B0002301930E
:1038C800D0F8403401930198C0F3414002B07047EA
:1038D80000F58060806880B270472DE9F843914612
:1038E8001C469DF8245000EB411606F5A0634FF0E6
:1038F800FF329A60032D7DD8DFE805F0026E0218CA
:1039080040F29D42DA6019F0800F09D1C26B12F4BF
:10391800807F71D0DA6842F06002DA6000270CE03C
:10392800DA6842F48072DA60002706E040F29D62AD
:10393800DA6019F0800F49D10027DA6842F00202F4
:10394800DA60D0F8183401F00F0101228A401343DD
:10395800C0F81834836943F00073836119F0800F4D
:103968004CD14FF00008FFF7A8FF9DF82030022B3C
:1039780014BF00230123022808BF0023002B40D0D6
:103988004FF40032A30503F0FE534FEAC92909F4A6
:10399800F04943EA0903A90401F440210B43BDF8A7
:1039A8002810C1F30A010B4343EA08031343C6F87E
:1039B8000035012D18BF032D05D1D6F8003543F089
:1039C8000053C6F800353846BDE8F883DA6842F493
:1039D8008072DA600027B0E740F22522DA6019F039
:1039E800800F01D10027A8E7DA6842F4C072DA60D4
:1039F8000027A2E70127A0E700279EE74FF4004829
:103A0800B1E70022BEE700F58060406980B27047E8
:103A180010B483B00023019300EB411101F5A06CB1
:103A2800D1F80035C3F38143D1F80025846814F038
:103A3800200F02D0D20F002A59D0022B18BF002B1A
:103A48002CD1D1F8003543F08043C1F800358368A4
:103A580013F0200F4BD1C36A13F47F0F17D1D1F89D
:103A6800003523F00043C1F80035D1F8003543F0A4
:103A78000043C1F80035019B01330193019BB3F565
:103A88007A7F34D8DCF80030002BF4DB2FE0D1F853
:103A9800003543F00043C1F8003528E0D1F800357F
:103AA80043F08043C1F80035D0F8103413F47F0F89
:103AB80017D1D1F8003523F00043C1F80035D1F80B
:103AC800003543F00043C1F80035019B01330193F1
:103AD800019BB3F57A7F0AD8DCF80030002BF4DBC1
:103AE80005E0D1F8003543F00043C1F80035002067
:103AF80003B05DF8044B704700EB4110064AC0F86C
:103B08001025D0F8003523F0804343F00043C0F877
:103B180000350020704700BF0000088030B585B030
:103B28004B78C46B14F4807F07D00C792CB9012A28
:103B380016D012B94C79012C20D04C6914B30D89D8
:103B480004EB050C0CF1FF3CBCFBF5FC1FFA8CFCEC
:103B5800BCF5807F18D92D020D614FF4807C13E0ED
:103B6800CC79022C18BF002CE3D100EB4314D4F815
:103B78000C5525F07005C4F80C55DAE74978FFF7BD
:103B8800BBFF6FE04FF0010CCD78002D51D00C89B0
:103B980004FB0CF40C610C69C4F31204394D05EAFA
:103BA800CC4C44EA0C0491F80AC04FEA4C7C0CF067
:103BB800C04C00EB431344EA0C04C3F8104512B19F
:103BC800CC68C3F8144500F58065AC6814F0010FA3
:103BD8000CBF4FF0010C4FF0000CD3F8004524F057
:103BE8000054C3F80045D3F8004544EA4C74C3F8C0
:103BF8000045D3F800450394039C24F080440394C3
:103C0800CC78C4B1039C44F400440394039C44F06E
:103C180000440394039CC3F800451ABBCB780BBB44
:103C28004B69FBB1CA79032A15D8DFE802F0091EEF
:103C3800091E0C61AFE7039C24F400440394E5E7F4
:103C48000333C26A92B2C3F38F039A4203D28369E1
:103C580043F020038361002300938B8A4A78C96864
:103C6800FFF7DAFC002005B030BD03332A6992B2B1
:103C7800C3F38F039A42EED2836943F08063836172
:103C8800E9E700BF0000F81F30B583B00446002301
:103C98000193FFF76DFC10212046FFF76FFC0546E6
:103CA80000B101252046FFF791FC00B10125002253
:103CB8000AE004EB4211D1F8003523F0802343F0E9
:103CC8008043C1F8003501320F2AF2D9002100E003
:103CD80001310F2916D804EB411000F5A062D0F885
:103CE800003523F4004343F04043C0F80035019BFE
:103CF80001330193019BB3F57A7FE9D81368002B50
:103D0800F5DBE5E74FF0FF33C4F814346361204670
:103D1800FFF728FC284603B030BD0000002800F05B
:103D2800FF8170B582B00446036813F0010F29D0F3
:103D3800954B9B6803F00C03042B1AD0924B9B689D
:103D480003F00C03082B0FD06368B3F5803F40D015
:103D5800002B54D18C4B1A6822F480321A601A68EE
:103D680022F480221A6039E0874B5B6813F4800FD5
:103D7800EAD0854B1B6813F4003F03D06368002B1F
:103D880000F0D081236813F0020F74D07E4B9B683B
:103D980013F00C0F5ED07C4B9B6803F00C03082BD0
:103DA80053D0E368002B00F08980774A136843F00A
:103DB8000103136001F094F80546734B1B6813F078
:103DC800020F72D101F08CF8401B0228F5D90320AC
:103DD800ADE16D4A136843F48033136063682BB315
:103DE80001F07EF80546684B1B6813F4003FC9D103
:103DF80001F076F8401B6428F5D9032097E1B3F564
:103E0800A02F09D0604B1A6822F480321A601A6811
:103E180022F480221A60E1E75B4B1A6842F48022A0
:103E28001A601A6842F480321A60D7E701F058F82D
:103E38000546554B1B6813F4003FA3D001F050F81A
:103E4800401B6428F5D9032071E14F4B5B6813F4DC
:103E5800800FA6D14C4B1B6813F0020F03D0E36808
:103E6800012B40F06181484A136823F0F803216967
:103E780043EAC1031360236813F0080F46D063694F
:103E880083B3414A536F43F00103536701F028F8A5
:103E980005463D4B5B6F13F0020F37D101F020F858
:103EA800401B0228F5D9032041E1374A136823F063
:103EB800F803216943EAC1031360DCE7324A136857
:103EC80023F00103136001F00BF805462E4B1B6825
:103ED80013F0020FCFD001F003F8401B0228F5D9E8
:103EE800032024E1284A536F23F00103536700F0AD
:103EF800F7FF0546244B5B6F13F0020F06D000F066
:103F0800EFFF401B0228F5D9032010E1236813F0C6
:103F1800040F7DD01C4B1B6C13F0805F1ED11A4B15
:103F28001A6C42F080521A641B6C03F080530193A0
:103F3800019B0125154B1B6813F4807F10D0A368E3
:103F4800012B25D0002B3BD10F4B1A6F22F0010219
:103F58001A671A6F22F004021A671EE00025E9E7C3
:103F68000A4A136843F48073136000F0B9FF0646E9
:103F7800064B1B6813F4807FE1D100F0B1FF801B72
:103F88006428F5D90320D2E00038024000700040D0
:103F98006E4A136F43F001031367A36833B300F04D
:103FA8009FFF0646694B1B6F13F0020F2FD100F0DD
:103FB80097FF801B41F288339842F3D90320B6E07B
:103FC800052B09D0614B1A6F22F001021A671A6F8C
:103FD80022F004021A67E0E75C4B1A6F42F0040211
:103FE8001A671A6F42F001021A67D6E700F078FFE5
:103FF8000646564B1B6F13F0020F08D000F070FFF7
:10400800801B41F288339842F3D903208FE0FDB931
:10401800A369002B00F08A804C4A926802F00C02D7
:10402800082A58D0022B19D0484A136823F0807305
:10403800136000F055FF0446444B1B6813F0007FE3
:1040480047D000F04DFF001B0228F5D903206EE091
:104058003E4A136C23F080531364D9E73B4A136834
:1040680023F08073136000F03BFF0546374B1B6855
:1040780013F0007F06D000F033FF401B0228F5D96B
:10408800032054E0E369226A1343626A43EA821315
:10409800A26A5208013A43EA0243E26A43EA026327
:1040A80043F00053294A5360136843F08073136048
:1040B80000F016FF0446254B1B6813F0007F06D15D
:1040C80000F00EFF001B0228F5D903202FE0002086
:1040D8002DE000202BE01D4A5268012B29D002F464
:1040E8008003E1698B4226D102F03F03216A8B42AB
:1040F80023D1616A47F6C0731340B3EB811F1ED109
:1041080002F44031A36A5B08013BB1EB034F18D1BD
:1041180002F07062E36AB2EB036F14D1002006E08C
:1041280001207047012002E0012000E0002002B0D9
:1041380070BD0120FBE70120F9E70120F7E7012026
:10414800F5E70120F3E70120F1E700BF003802405E
:1041580008B5264B9B6803F00C03042B41D0082BB1
:1041680041D1224B5A6802F03F025B6813F4800F7A
:1041780012D01E4B5968C1F388111D480023A1FBBA
:104188000001FCF7C7F9194B5B68C3F3014301331E
:104198005B00B0FBF3F027E0144B5868C0F38810BD
:1041A8004FEA401CBCEB000C6EEB0E0E4FEA8E1370
:1041B80043EA9C634FEA8C11B1EB0C0163EB0E03ED
:1041C800DB0043EA5173C90011EB000C43F1000313
:1041D800990200234FEA8C2041EA9C51FCF79AF996
:1041E800D1E7034800E0034808BD00BF003802409B
:1041F80040787D010024F400002800F0A08070B50C
:104208000D460446524B1B6803F00F038B420BD23A
:104218004F4A136823F00F030B431360136803F02E
:104228000F038B4240F08D80236813F0020F17D0E4
:1042380013F0040F04D0474A936843F4E0539360A3
:10424800236813F0080F04D0424A936843F460438C
:104258009360404A936823F0F003A1680B4393608E
:10426800236813F0010F31D06368012B20D0022B93
:1042780025D0384A126812F0020F64D035498A688E
:1042880022F0030213438B6000F02AFE0646314BEE
:104298009B6803F00C036268B3EB820F16D000F042
:1042A8001FFE801B41F288339842F0D9032045E075
:1042B800284A126812F4003FE0D101203EE0254A66
:1042C800126812F0007FD9D1012037E0204B1B681B
:1042D80003F00F03AB420AD91D4A136823F00F03FA
:1042E8002B431360136803F00F03AB422DD12368EF
:1042F80013F0040F06D0174A936823F4E053E168DB
:104308000B439360236813F0080F07D0114A936892
:1043180023F46043216943EAC1039360FFF718FF60
:104328000C4B9B68C3F303130B4AD35CD8400B4B6D
:1043380018600B4B1868FDF753FF002070BD012073
:1043480070470120FAE70120F8E70120F6E700BFEF
:10435800003C0240003802407C9F00086C000020AE
:1043680068000020014B1868704700BF6C000020EF
:1043780008B5FFF7F7FF044B9B68C3F38223034A92
:10438800D35CD84008BD00BF00380240749F0008C5
:1043980008B5FFF7E7FF044B9B68C3F34233034AB2
:1043A800D35CD84008BD00BF00380240749F0008A5
:1043B8000F2303600B4B9A6802F0030242609A686D
:1043C80002F0F00282609A6802F4E052C2609B68D0
:1043D800DB0803F4E0530361034B1B6803F00F038E
:1043E8000B60704700380240003C0240F0B583B0D3
:1043F8000446066816F001060DD0A74B9A6822F409
:1044080000029A609A68416B0A439A60436B002BDA
:1044180000F039810026256815F4002511D09E4A40
:10442800D2F88C3023F44013E16B0B43C2F88C3084
:10443800E36BB3F5801F00F02881002B00F0278183
:104448000025236813F4801F0FD0934AD2F88C30CC
:1044580023F44003216C0B43C2F88C30236CB3F572
:10446800800F00F0168103B90125236813F0807FBF
:1044780000D0012613F0200F40F01081236813F0BC
:10448800100F0CD0844BD3F88C2022F08072C3F824
:104498008C20D3F88C20A16B0A43C3F88C202368A6
:1044A80013F4804F08D07C4AD2F8903023F440337C
:1044B800616E0B43C2F89030236813F4004F08D0A4
:1044C800754AD2F8903023F44023A16E0B43C2F80A
:1044D8009030236813F4803F08D06F4AD2F89030A8
:1044E80023F44013E16E0B43C2F89030236813F4B1
:1044F800003F08D0684AD2F8903023F44003216F77
:104508000B43C2F89030236813F0400F08D0624A7A
:10451800D2F8903023F00303616C0B43C2F890305B
:10452800236813F0800F08D05B4AD2F8903023F04C
:104538000C03A16C0B43C2F89030236813F4807FFE
:1045480008D0554AD2F8903023F03003E16C0B4381
:10455800C2F89030236813F4007F08D04E4AD2F88E
:10456800903023F0C003216D0B43C2F890302368CC
:1045780013F4806F08D0484AD2F8903023F440737F
:10458800616D0B43C2F89030236813F4006F08D0B4
:10459800414AD2F8903023F44063A16D0B43C2F82E
:1045A8009030236813F4805F08D03B4AD2F89030EB
:1045B80023F44053E16D0B43C2F89030236813F4A1
:1045C800005F08D0344AD2F8903023F44043216E7B
:1045D8000B43C2F89030236813F4800F08D02E4A9A
:1045E800D2F8903023F08063A16F0B43C2F890306B
:1045F800236813F4001F0DD0274AD2F8903023F017
:104608000063E16F0B43C2F89030E36FB3F1006FC2
:1046180000F0AA80236813F0080F00D0012513F4D6
:10462800802F08D01C4AD2F8903023F04073616F75
:104638000B43C2F89030236813F4000F09D0164AD0
:10464800D2F8903023F08053D4F880100B43C2F88E
:10465800903026B9236813F0007F00F005810E4AD8
:10466800136823F08063136000F03AFC06460A4B97
:104678001B6813F0006F79D000F032FC801B6428AF
:10468800F5D90320F3E00126C5E60126D5E6012584
:10469800D7E60126E7E600BF003802407F4B1A6CD8
:1046A80042F080521A641B6C03F080530193019B03
:1046B8007B4A136843F48073136000F011FC0746CB
:1046C800774B1B6813F4807F06D100F009FCC01BF0
:1046D8006428F5D90320CAE0704B1B6F13F44073AC
:1046E80015D0226B02F440729A4210D06B4B1A6FAD
:1046F80022F44072196F41F480311967196F21F45F
:10470800803119671A671B6F13F0010F12D1236BE1
:1047180003F44072B2F5407F1DD0604A936823F4D9
:10472800F81393605D490B6F226BC2F30B021343BE
:104738000B67A3E600F0D4FB0746584B1B6F13F03A
:10474800020FE4D100F0CCFBC01B41F28833984241
:10475800F3D903208BE05148826822F4F8125149BA
:1047680019400A438260DDE7012553E7236813F007
:10477800010F13D0636B8BB9484AD2F88430D2F852
:104788008410606803F4403343EA801301F07061D9
:104798000B43A16843EA0173C2F88430236813F419
:1047A800002F03D0E26BB2F5801F06D013F4801FF0
:1047B8001ED0236CB3F5800F1AD1384AD2F8843052
:1047C800D2F88410606803F4403343EA8013E06849
:1047D80043EA006301F0E0410B43C2F88430D2F8A9
:1047E8008C3023F01F03616A01390B43C2F88C3007
:1047F800236813F0807F11D0284AD2F88400D2F8B9
:104808008410666823691B0443EA861300F070600D
:10481800034301F0E0410B43C2F88430236813F0EE
:10482800007F0DD0626823691B0443EA8213E268A3
:1048380043EA0263A26843EA0273184AC2F8843062
:10484800164A136843F08063136000F049FB06467C
:10485800124B1B6813F0006F06D100F041FB801B60
:104868006428F5D9032002E0012D02D0002003B00E
:10487800F0BD0A4A136823F08053136000F030FB40
:104888000546064B1B6813F0005F0DD000F028FBAF
:10489800401B6428F5D90320E9E700BF003802402F
:1048A80000700040FFFCFF0F236813F4002F01D0B5
:1048B800E26B22B113F4801F1DD0236CDBB9354A9B
:1048C800D2F88830D2F88810606903F4403343EA9C
:1048D8008013A06943EA006301F0E0410B43C2F88A
:1048E8008830D2F88C3023F4F853A16A013943EAAE
:1048F8000123C2F88C30236813F4001F03D0E36F40
:10490800B3F1006F31D0236813F0080F19D0214A92
:10491800D2F88810D2F88830606903F4403343EA4B
:10492800801301F070610B43E16943EA0173C2F837
:104938008830D2F88C3023F44033E16A0B43C2F854
:104948008C30144A136843F08053136000F0C8FA9F
:104958000446104B1B6813F0005F19D100F0C0FA31
:10496800001B6428F5D9032081E70A4AD2F8880099
:10497800D2F888106569236A1B0443EA851300F09E
:104988007060034301F0E0410B43C2F88830BAE796
:1049980000206CE7003802400246B0F5002F04D032
:1049A8000020B2F5801F62D07047614BD3F88C307D
:1049B80003F44013B3F5801F2ED0B3F5001F54D075
:1049C8000BB10020EDE75A4B5B6813F4800F1BD145
:1049D800574B596801F03F01564BB3FBF1FC544962
:1049E800D1F88800C0F30360D1F88830C3F3881386
:1049F8000CFB03F3B3FBF0F3D1F88C10C1F30421E3
:104A08000131B3FBF1F0CCE7494B596801F03F01A4
:104A1800494BB3FBF1FCE2E7454B5B6813F4800FAD
:104A28001BD1434B596801F03F01424BB3FBF1FCEA
:104A38003F49D1F88400C0F30360D1F88430C3F350
:104A480088130CFB03F3B3FBF0F3D1F88C1001F0DF
:104A58001F010131B3FBF1F0A3E7354B596801F0B1
:104A68003F01354BB3FBF1FCE2E7344899E7304BA3
:104A7800D3F88C3003F44003B3F5800F2DD0B3F591
:104A8800000F53D0002B8FD1294B5B6813F4800F94
:104A98001BD1274B5B6803F03F032649B1FBF3F1B9
:104AA800234BD3F88820C2F30362D3F88800C0F3FD
:104AB800881001FB00F0B0FBF2F0D3F88C30C3F3A0
:104AC80004230133B0FBF3F07047194B5B6803F024
:104AD8003F031949B1FBF3F1E2E7154B5B6813F4A7
:104AE800800F1BD1124B5B6803F03F031149B1FBE8
:104AF800F3F10F4BD3F88420C2F30362D3F8840098
:104B0800C0F3881001FB00F0B0FBF2F0D3F88C3052
:104B180003F01F030133B0FBF3F07047044B5B68ED
:104B280003F03F030449B1FBF3F1E2E703483BE735
:104B3800003802400024F40040787D010080BB006A
:104B480000230F2B00F2F48070B582B066E0856810
:104B58004FEA430E032404FA0EF425EA0405CC6850
:104B680004FA0EF42C438460446824EA02044A6878
:104B7800C2F300129A40224342605DE0DC08083428
:104B880050F8242003F00705AD004FF00F0E0EFA81
:104B980005FE22EA0E0E0A69AA4042EA0E0240F811
:104BA80024205DE0092200E0002202FA0EF22A43E6
:104BB8000234604D45F824205F4A94686FEA0C027D
:104BC80024EA0C054E6816F4801F01D04CEA04054F
:104BD800594CA560E46802EA04054E6816F4001F03
:104BE80001D04CEA0405544CE560646802EA040507
:104BF8004E6816F4003F01D04CEA04054E4C65603F
:104C0800246822404D6815F4803F01D04CEA040224
:104C1800494C226001330F2B00F2888001229A4010
:104C28000C6804EA020C32EA0404F3D14C6804F07C
:104C38000304013C012C8AD94A6802F00302032AC2
:104C480009D0C4685D000322AA4024EA02048A68E5
:104C5800AA402243C2604A6802F00302022A8DD0A9
:104C680004684FEA430E032202FA0EF224EA020411
:104C78004A6802F0030202FA0EF2224302604A680E
:104C880012F4403FC6D02D4A546C44F48044546416
:104C9800526C02F480420192019A9C08A51C254A94
:104CA80052F8255003F0030E4FEA8E0E0F2202FA37
:104CB8000EF225EA0205224A90423FF475AF02F54A
:104CC8008062904222D002F58062904220D002F5A4
:104CD800806290421ED002F5806290421CD002F59C
:104CE800806290421AD002F58062904218D002F594
:104CF8008062904216D002F58062904214D002F58C
:104D0800806290423FF44EAF0A224EE701224CE700
:104D180002224AE7032248E7042246E7052244E73D
:104D2800062242E7072240E708223EE702B070BDAC
:104D3800704700BF00380140003C01400038024085
:104D4800000002400369194201D001207047002089
:104D580070470AB18161704709048161704700009A
:104D6800024A136843F48073136070470070004070
:104D780010B582B01B4B1A6C42F080521A641B6C3F
:104D880003F080530193019B174A136843F480335F
:104D9800136000F0A5F80446134B5B6813F4803FDA
:104DA80008D100F09DF8001BB0F57A7FF4D90320F4
:104DB80002B010BD0C4A136843F40033136000F0CE
:104DC8008FF80446084B5B6813F4003F07D100F0E6
:104DD80087F8001BB0F57A7FF4D90320E8E70020B4
:104DE800E6E700BF0038024000700040002804DBFE
:104DF8000901C9B2044B1954704700F00F000901AA
:104E0800C9B2024B1954704700E400E014ED00E009
:104E180000B500F00700C0F1070CBCF1040F28BF73
:104E28004FF0040C031D062B0FD9C31E4FF0FF3E95
:104E38000EFA0CF021EA000199400EFA03FE22EA6C
:104E48000E0241EA02005DF804FB0023EEE70000D1
:104E58000649CB6823F4E0631B041B0C000200F432
:104E6800E0600343024A1A43CA60704700ED00E05D
:104E78000000FA0510B50446054BD868C0F30220B7
:104E8800FFF7C6FF01462046FFF7B0FF10BD00BF81
:104E980000ED00E0002807DB00F01F0240090123B5
:104EA8009340024A42F82030704700BF00E100E01A
:104EB80008B50320FFF7CCFF0F20FDF791F9FCF7A9
:104EC80013FC002008BD0000034A1168034B1B783F
:104ED8000B441360704700BF6C1100206500002070
:104EE800014B1868704700BF6C11002038B50446A4
:104EF800FFF7F6FF0546B4F1FF3F02D0044B1B78DD
:104F08001C44FFF7EDFF401BA042FAD338BD00BF99
:104F180065000020002857D010B5044690F84130AD
:104F2800002B41D0242384F841302268136823F0F1
:104F3800010313606368226823F0706313612268B9
:104F4800936823F400439360E368012B31D0A3688E
:104F5800226843F404439360E368022B2FD022684D
:104F680051681A4B0B4353602268D36823F40043FB
:104F7800D360236962691343A169226843EA012364
:104F8800D360E369216A22680B43136022681368BF
:104F980043F00103136000206064202384F841304B
:104FA800206384F8420010BD80F84030FCF72AFDE9
:104FB800B8E7A368226843F400439360CCE723680A
:104FC8004FF400625A60CAE701207047008000026F
:104FD800034690F84120D2B2202A23D190F84020ED
:104FE800012A21D0012280F84020242280F8412083
:104FF8000068026822F0010202601868026822F460
:1050080080520260186802681143016019680A68D2
:1050180042F001020A60202283F84120002083F830
:10502800400070470220704702207047034690F8FE
:105038004120D2B2202A21D190F84020012A1FD045
:10504800012280F84020242280F84120006802686C
:1050580022F0010202601868026822F4706242EAD3
:105068000122026019680A6842F001020A602022DF
:1050780083F84120002083F84000704702207047E1
:10508800022070474A4B5A6822F440325A605A68E4
:1050980041680A435A600268536823F48073536076
:1050A80002685368016943EA012353600268536840
:1050B80023F0407353600268536881680B43536060
:1050C8000268936823F40063936002689368C16878
:1050D8000B439360826A374B9A4257D002689368B1
:1050E80023F07063936002689368816A0B4393604E
:1050F8000268936823F04053936002689368C16A1A
:105108000B4393600268936823F00203936002687C
:105118009368816943EA4103936090F82030002B3B
:105128003FD00268536843F40063536002685368D1
:1051380023F46043536001684B68426A013A43EACA
:1051480042334B600268D36A23F47003D362016868
:10515800CB6AC269013A43EA0253CB620268936898
:1051680023F4007393600268936890F8301043EA60
:10517800412393600268936823F480639360026814
:105188009368416943EA8123936070470268936892
:1051980023F0706393600268936823F04053936030
:1051A800B0E70268536823F400635360CAE700BF9E
:1051B800002301400100000F28B310B50446036C1A
:1051C80043B1236C13F0100F0BD00120002384F897
:1051D8003C3010BDFCF7A0FA0023636484F83C302F
:1051E800EFE7226C094B134043F002032364204687
:1051F800FFF748FF00206064236C23F0030343F0AB
:1052080001032364E2E70120704700BFFDEEFFFFC2
:1052180030B482B00022019290F83C20012A00F0BC
:10522800DC800346012280F83C200A68B2F1004F76
:1052380018BF092A22D90468E06892B202EB420238
:105248001E3A4FF0070C0CFA02F220EA0202E26062
:105258000A68634882420AD01D68E8688C6892B27E
:1052680002EB42021E3A94402043E8601CE01868B2
:10527800C2688C6842EA0462C26015E0046820696A
:1052880092B202EB42024FF0070C0CFA02F220EA4B
:10529800020222611C6820690A8802EB42028D68BA
:1052A80005FA02F2024322614A68062A29D81C68D4
:1052B800606B02EB8202053A4FF01F0C0CFA02F207
:1052C80020EA020262631C68606B4A6802EB820291
:1052D800053AB1F800C00CFA02F20243626318689A
:1052E800404A90423DD018683E4A904243D01868E0
:1052F8003C4A90424CD0002083F83C0002B030BCBD
:1053080070470C2A16D81D68286B02EB8202233AD4
:105318001F2404FA02F220EA02022A631D68286B9D
:105328004A6802EB8202233A0C8804FA02F202432A
:105338002A63D4E71D68E86A02EB8202413A1F2417
:1053480004FA02F220EA0202EA621D68E86A4A6880
:1053580002EB8202413A0C8804FA02F20243EA6242
:10536800BDE70A68B2F1004FBDD11F48426822F478
:1053780040024260B7E70A68122AB8D11A4A506850
:1053880020F400005060506840F480005060AEE7A0
:105398000A681348112A18BF8242ACD1124A5068D1
:1053A80020F480005060506840F4000050600968A4
:1053B8000B4A91429FD10D4A12680D49A1FB021276
:1053C800920C02EB82025200019202E0019A013A29
:1053D8000192019A002AF9D18DE702208EE700BFD9
:1053E8001200001000200140002301406C00002042
:1053F80083DE1B43002838D010B50446437F1BB317
:105408000223637723791BBB2368194A5A612268F0
:10541800936823F018039360637913BB23684FF0F4
:10542800FF321A612268936823F0600361690B43B5
:1054380093602268936823F08003A1690B4393600B
:1054480001236377002010BD0377FCF7A9F9D7E79C
:10545800E268A168204600F00DF80028DCD00120A1
:10546800F1E7236822691A61DCE70120704700BF71
:10547800B71DC10410B41F231C46013B34B103F00F
:105488001F0C21FA0CFC1CF0010FF5D0182A22D8A9
:10549800DFE802F00F212121212121211D212121D5
:1054A8002121212119212121212121210D00062B32
:1054B80015D80368596101688B6823F018031343F2
:1054C8008B60002008E0072BF3D9012004E00F2BA4
:1054D800EFD9012000E001205DF8044B704701205E
:1054E800FAE70000002848D010B5044690F8353097
:1054F800002B32D0022384F83530A3690BB1002386
:105508006362226811681E4B0B40136022681168A1
:10551800636860690343E068034320690343A06844
:105528000343A0690343206A0343606A0343A06AF4
:105538000343E06A0343206B03430B431360636830
:10554800102B0DD02268D36843F01E03D3600020CF
:10555800E064012384F8353010BDFCF737F9C9E75A
:10556800237F627F43EA0223A27F43EA0243E17F6B
:10557800226843EA01639361E4E70120704700BFB2
:1055880007F0E0FF38B310B5044690F83930EBB1B6
:10559800022384F839302268136823F440336168A1
:1055A8000B4313602268536B23F00703A1680B4376
:1055B80053632268116C094B0B40E1680B43136479
:1055C8000020E063012384F8393010BD80F83830BA
:1055D800FCF786F9DCE70120704700BF00C0FFFF39
:1055E8007047704770B5044603685D681E6815F01B
:1055F800010F16D016F4807F13D01A6822F4807237
:105608001A60C36B43F00103C363036801229A6005
:10561800042380F83930002380F83830436903B117
:10562800984715F0200F18D016F4005F15D022689F
:10563800136823F400531360236820229A60E36BF5
:1056480043F00203E363042384F83930002384F829
:10565800383063690BB12046984715F0080F18D009
:1056680016F4006F15D02268136823F400631360E2
:10567800236808229A60E36B43F00403E36304237E
:1056880084F83930002384F8383063690BB1204638
:10569800984715F0040F02D016F4806F20D115F04A
:1056A800020F16D016F4007F13D02268136823F473
:1056B80000731360236802229A60E36BE36301239B
:1056C80084F83930002384F8383023690BB1204638
:1056D800984715F0100F02D016F4805F0CD170BDFA
:1056E8002268136823F480631360236804229A6095
:1056F8002046FFF775FFD2E72268136823F480532A
:105708001360236810229A60E36BE363012384F833
:105718003930002384F838302046FFF762FFDEE78F
:1057280090F83820012A59D030B40346012280F875
:105738003820022280F8392000EB0112D0698A1C37
:1057480012019A5840EA0242093801281DD9881CDA
:1057580003EB0010406842EA006239BB1C68656AC6
:105768001F48284010436062186803EB01129469CF
:105778008461D269093A012A0FD9012283F83920B4
:10578800002083F8380030BC7047881C03EB0010F9
:10579800406800F07F400243DFE7023103EB01116C
:1057A8004A68196822F07F428A62E6E71C68E56960
:1057B8000B4828401043E061186803EB0112946914
:1057C8000461D269093A012AD7D8023103EB0111E1
:1057D8004A68196822F07F420A62CEE702207047C1
:1057E800F0FFFC005079137943EA002307480B5077
:1057F800D07893781B0443EA0063507843EA002387
:1058080012781343024A8B50704700BF4080024011
:105818004480024030B4002208E0C468DC6051F8DB
:105828000C3043F4400341F80C300132032A1FD8EE
:10583800C16802EB82034FEAC30C01EBC3030024E7
:1058480041F80C405C609C60DC60941D40F824309A
:1058580051F80C4044F4801441F80C40022ADCD87A
:10586800541C04EB8404C56805EBC404DC60D6E76B
:1058780000238362C268036803F580531A6130BC51
:10588800704700B54FF0000E03E00269DA600EF1D0
:10589800010EBEF1030F29D801690EEB8E034FEA02
:1058A800C30C01EBC303002241F80C205A609A6034
:1058B800DA601A625A624FF0004241F80C2044F252
:1058C800F4525A605A6822F000425A600EF11202ED
:1058D80040F82230BEF1020FD7D801690EF101025B
:1058E80002EB820201EBC201D960D0E70023C36555
:1058F80003668366C36683650269036803F580539C
:10590800DA605DF804FB000070B505460C460268D5
:1059180013683B491940237C002B60D14FF40003E6
:10592800607C00285DD14FF480000343A0680343E6
:10593800E07F43EA004360690343A07F002852D117
:105948004FF400500343207F43EA0033A069034328
:10595800207943EA802394F82000002845D14FF4A9
:1059680000700343E07B43EAC013606A034394F882
:10597800280043EA00130B4313602B681E680120BC
:10598800FFF7B4FA2B681E6029688A6922F0BE0204
:105998001204120CA36C1B0494F84C0038BB802032
:1059A8000343206D034394F85500012821D00020BB
:1059B800034394F8560001281DD00020034394F8AF
:1059C8005400012819D00020034313438B612B682E
:1059D8009C690120FFF78AFA2B689C6170BD00233F
:1059E8009EE70020A1E70020ACE70020B9E70020EF
:1059F800D6E70820DCE70420E0E70220E4E700BF60
:105A08000F8120FF70B505460C46026802F58053E9
:105A18009B692B491940237B002B4DD14FF08063A4
:105A2800607B43EA4063607F002847D14FF48010D1
:105A38000343A07B43EA405360690343207F43EA62
:105A4800C013A07F43EA8013206A034394F824001C
:105A580043EA80030B4302F5805293612B6803F5F8
:105A680080539E690120FFF741FA2B6803F58053A4
:105A78009E612279A36843EA4263A26913432269BB
:105A8800134394F8252043EAC213A26A43EA820327
:105A9800226813432A6843F4000302F58052136016
:105AA8002B6803F580531C680120FFF71FFA2B6849
:105AB80003F580531C6070BD0023B1E70020B7E7F1
:105AC800233FDEF870B5A4B0064601258DF83C509A
